:020000040802F0
:1020000000C00020396E0208FD270208FF270208E1
:102010000128020803280208052802080000000021
:10202000000000000000000000000000F163020852
:102030000728020800000000916402089F5D020862
:10204000896E0208896E0208896E0208896E02088C
:10205000896E0208896E0208896E0208896E02087C
:10206000896E0208896E0208896E0208896E02086C
:10207000896E0208896E0208896E0208896E02085C
:10208000896E0208896E0208896E0208896E02084C
:1020900019280208896E0208896E0208896E0208F2
:1020A000896E0208896E0208896E0208896E02082C
:1020B000896E02080000000000000000896E02081E
:1020C000896E02080000000000000000896E02080E
:1020D00000000000896E0208896E020800000000FE
:1020E000896E0208896E02080000000000000000EE
:1020F00000000000000000000000000000000000E0
:10210000000000000000000000000000896E0208CE
:10211000000000000000000009280208896E020883
:10212000896E0208896E0208896E0208896E0208AB
:10213000896E02080000000000000000000000009E
:10214000896E0208896E0208896E0208896E02088B
:10215000896E0208896E0208896E0208896E02087B
:10216000896E0208896E0208896E0208000000006C
:10217000896E0208896E020800000000000000005D
:10218000896E0208896E0208896E0208000000004C
:1021900010B5054C237833B9044B13B10448AFF3A1
:1021A00000800123237010BD1000002000000000FB
:1021B000006F020808B5034B1BB103490348AFF396
:1021C000008008BD0000000014000020006F02081D
:1021D0002DE9F04188B003AD0024039404940594E4
:1021E000069407942B4BDA6C42F00102DA64DA6C45
:1021F00002F001020192019ADA6C42F00202DA6402
:10220000DB6C03F002030293029B22464FF49061C1
:102210004FF0904002F03CF91F4F224638213846DB
:1022200002F036F94FF44C7303930494012605969B
:1022300029464FF0904002F053F84FF49063039317
:1022400004964FF00208CDF81480069429464FF00A
:10225000904002F045F80323039304940596294621
:10226000384602F03DF8082303930496059406943B
:102270002946384602F034F8302303930496CDF80B
:10228000148006942946384602F02AF808B0BDE8C2
:10229000F08100BF001002400004004808B5012092
:1022A00003F031FEFBE7000008B50821034802F007
:1022B000F4F84FF4FA7003F026FEF6E70004004845
:1022C00008B500F029FA08BD08B50268034B9A4228
:1022D00000D008BD01F0FAF8FBE700BF0010004095
:1022E00008B503F097FD00220821024802F0D0F85B
:1022F00072B6FEE70004004808B50D480D4B0360B8
:102300000A23436000238360C3604FF440220261CC
:102310004FF480124261037643768376C376037767
:10232000437700F0FCFC00B908BDFFF7D9FF00BF00
:10233000140500200064004008B50848084B0360FD
:10234000002303714371436183610123036202F03F
:1023500065F900B908BDFFF7C3FF00BFF004002016
:102360000030024000B587B0002300930193029330
:102370000393049305931848184A026043608360EE
:10238000C360036104224261037643760122C26185
:1023900080F820308362C36280F83030436380F875
:1023A000383004F0B9F990B90D4B0093062301932E
:1023B000002302937F22039204220492059369462C
:1023C000054804F08DFA20B907B05DF804FBFFF76B
:1023D00087FFFFF785FF00BF3C0500200000045089
:1023E0002000F01410B58AB028220021684604F0BD
:1023F0004CFD0123079308930E2309936946044873
:1024000000F033FD08B90AB010BDFFF769FF00BF47
:102410001405002000B597B04422002105A804F05F
:1024200034FD0023009301930293039304934FF42C
:10243000007002F043F818BB022305934FF480723A
:102440000892102209920F93109311931422129262
:10245000072213921493159305A801F0E5F888B9A3
:102460000F23009303230193002302930393049308
:102470000421684601F00EFC30B917B05DF804FB8A
:10248000FFF72EFFFFF72CFFFFF72AFF08B501F03B
:102490000DF8FFF7BFFFFFF79BFEFFF72DFFFFF7DC
:1024A0004BFFFFF75FFFFFF79DFF184800F060FD4F
:1024B00008B1FFF715FF0221144800F0B1FE08B182
:1024C000FFF70EFF03F078FC00F076F908B1FFF794
:1024D00007FF7F210E4804F063FC0E4A00210E48DE
:1024E00003F0B7FC0D4B18600D4A00210D4803F0B6
:1024F000B0FC0D4B18600D4A00210D4803F0A9FCFB
:102500000C4B186003F06AFCFEE700BF14050020C6
:102510003C050020A06F02089D220208EC04002068
:102520007C6F0208A9220208E8040020586F020804
:10253000C122020888020020BFF34F8F0549CA68F4
:1025400002F4E062044B1343CB60BFF34F8F00BF34
:10255000FDE700BF00ED00E00400FA0588B338B5E0
:102560000446037913F0010F05D0027B0AB1012B59
:1025700002D0012A04D838BD124B01211970F8E7A6
:102580006279114D02F001021021284601F080FF0E
:102590006279C2F340022021284601F079FF627976
:1025A000C2F380024FF480614FF0904001F070FF61
:1025B0006279C2F3C00280214FF0904001F068FFC1
:1025C000D9E77047A00500200004004850B338B593
:1025D0000446037B012B03D9037913F0010F00D1CB
:1025E00038BD4279104D02F001021021284601F059
:1025F0004FFF6279C2F340022021284601F048FFD4
:102600006279C2F380024FF480614FF0904001F094
:102610003FFF6279C2F3C00280214FF0904001F089
:1026200037FFDDE7704700BF0004004808B50D4ADA
:10263000D3680133D36003680B4A934206D00B4A38
:10264000934205D00A4A934205D008BDFFF774FFB4
:10265000FFF784FFF9E7074B1B78002BF5D1FFF755
:10266000B5FFF2E7A4050020F7014000C0025000CA
:10267000C0021000A005002060B330B589B0054647
:102680000368039300240294059404230493037BBA
:1026900006938DF81C40022C14D801AB2A1D02A908
:1026A0000E4800F093FC034638B10134E4B2022C2A
:1026B00008D8012003F027FCEDE709490A68013238
:1026C0000A6004E0064A5369013353610123184646
:1026D00009B030BD01231846704700BF1405002023
:1026E000A405002000B587B000231A4601A90848B8
:1026F000006803F0A3FC40B901A8FFF7BDFF002864
:10270000F2D0044A53680133536007B05DF804FB0C
:10271000C0050020A405002000B587B0642003F0A8
:10272000F2FB02E001A8FFF781FF00231A4601A98E
:102730000548006803F082FC0028F3D0FFF7D2FFC1
:102740000A2003F0E0FBF0E7BC05002028B3134BA0
:102750001B6813B310B58CB001AB05AA002100F0C3
:10276000AAFC08B10CB010BD069B0093099B8DF824
:102770000C3000248DF80D4003F061FB04902346DB
:10278000224669460548006803F016FC0028E9D097
:10279000034A136901331361E4E77047BC05002065
:1027A000A405002030B10022026042608260C26055
:1027B000026142617047000010B5002214214020E0
:1027C00003F0AFFB0A4C206000221421202003F00C
:1027D000A8FB084B186023682BB130B10648FFF7FF
:1027E000E1FF002010BD0120FCE70120FAE700BF57
:1027F000C0050020BC050020A4050020FEE7FEE780
:10280000FEE7FEE7FEE7704708B5024800F05AF918
:1028100008BD00BFC405002008B5024800F01EFD39
:1028200008BD00BF1405002000B583B00D4B1A6E23
:1028300042F001021A661A6E02F001020092009A3A
:102840009A6D42F080529A659B6D03F0805301931C
:10285000019B00220F216FF0010001F0CBFE03B0BD
:102860005DF804FB0010024010B59CB00446002146
:102870001791189119911A911B91542202A804F0F2
:1028800004FB22681E4B9A4201D01CB010BD4FF4CD
:10289000804302934FF080531493022303930493D5
:1028A0000822059207220692079308934FF080733F
:1028B000099302A801F0A0FBF0B9124BDA6C42F4C4
:1028C0000052DA64DA6C02F400520092009ADA6C78
:1028D00042F00102DA64DB6C03F001030193019B17
:1028E0004F2317930B2318930023199317A94FF025
:1028F000904001F0F5FCC8E7FFF7F2FCDDE700BF10
:10290000000004500010024000B589B0002303937A
:1029100004930593069307930268184B9A4202D0DA
:1029200009B05DF804FB03F5D6339A6D42F00072EE
:102930009A659A6D02F000720192019ADA6C42F087
:102940000102DA64DB6C03F001030293029B4FF493
:10295000C05303930223049303230693092307938D
:1029600003A94FF0904001F0BBFC00220521142088
:1029700001F040FE142001F04DFED1E7006400405C
:102980000268094B9A4200D0704782B0A3F5005309
:102990009A6C42F480529A649B6C03F480530193C6
:1029A000019B02B0704700BF0030024030B589B0D3
:1029B0000446214B9A6D42F010029A659B6D03F01C
:1029C00010030193019B02A903A801F03FFA069BA3
:1029D000CBB901F029FA0346184AA2FB03239B0C4A
:1029E000013B1748174A026040F2E732C260436079
:1029F000002303618360836100F05EF9054630B116
:102A0000284609B030BD01F00FFA4300E4E70C4856
:102A100000F01EF805460028F2D1362001F0FAFD3C
:102A20000F2C01D90125EBE700222146362001F0C9
:102A3000E1FD054B1C60E3E70010024083DE1B4311
:102A4000C405002000100040040000207047000072
:102A500090F83D30012B26D1022380F83D300268EA
:102A6000D36843F00103D3600368124A93420CD049
:102A7000B3F1804F09D002F5A052934205D01A68F5
:102A800042F001021A600020704799680A4A0A4021
:102A9000062A0AD0B2F5803F09D01A6842F0010236
:102AA0001A60002070470120704700207047002006
:102AB000704700BF002C01400700010070477047BD
:102AC0007047704770B504460368DE681D6915F0ED
:102AD000020F10D016F0020F0DD06FF002021A6133
:102AE0000123037703689B6913F0030F64D0FFF79A
:102AF000E6FF0023237715F0040F12D016F0040F21
:102B00000FD023686FF004021A6102232377236831
:102B10009B6913F4407F55D02046FFF7D0FF002378
:102B2000237715F0080F12D016F0080F0FD0236886
:102B30006FF008021A61042323772368DB6913F01E
:102B4000030F46D02046FFF7BAFF0023237715F086
:102B5000100F12D016F0100F0FD023686FF0100274
:102B60001A61082323772368DB6913F4407F37D089
:102B70002046FFF7A4FF0023237715F0010F02D0B2
:102B800016F0010F33D115F4025F02D016F0800F5A
:102B900035D115F4807F02D016F0800F37D115F0B3
:102BA000400F02D016F0400F39D115F0200F02D09F
:102BB00016F0200F3BD170BDFFF780FF2046FFF7D6
:102BC0007FFF96E72046FFF779FF2046FFF778FF63
:102BD000A5E72046FFF772FF2046FFF771FFB4E735
:102BE0002046FFF76BFF2046FFF76AFFC3E7236825
:102BF0006FF001021A612046FFF766FBC3E7236806
:102C00006FF402521A61204600F087F8C1E723688A
:102C10006FF480721A61204600F080F8BFE72368E5
:102C20006FF040021A612046FFF74BFFBDE72368B3
:102C30006FF020021A61204600F06EF8BBE700003A
:102C400003681C4A904202D0B0F1804F03D123F0B8
:102C500070034A681343174A90420AD0B0F1804F7C
:102C600007D002F5A052904203D002F58062904254
:102C700003D123F44073CA68134323F080034A69E5
:102C800013438A68C2620A6882620A4A904207D085
:102C900002F5A052904203D002F58062904201D129
:102CA0000A690263026842F0040202600122426182
:102CB00003607047002C014060B310B5044690F8E3
:102CC0003D3013B3022384F83D30214651F8040B04
:102CD000FFF7B6FF012384F8483084F83E3084F8CB
:102CE0003F3084F8403084F8413084F8423084F832
:102CF000433084F8443084F8453084F8463084F812
:102D0000473084F83D30002010BD80F83C30FFF79C
:102D10009DFED7E701207047704770477047002835
:102D200000F0A18038B5044690F82030D3B1226875
:102D3000136843F00103136000F0D4FB05462368D9
:102D40005A6812F0010F10D100F0CCFB401B0A288A
:102D5000F5D9636A43F400336362052384F82030B5
:102D6000012038BDFFF7D0FDE1E71A6822F002022A
:102D70001A6000F0B7FB054623685A6812F0020F8C
:102D80000DD000F0AFFB401B0A28F5D9636A43F46D
:102D900000336362052384F820300120E1E7227EBE
:102DA000012A3DD01A6822F080021A60637E012B4E
:102DB0003BD02268136823F040031360A37E012BED
:102DC00039D02268136823F020031360E37E012BBF
:102DD00037D02268136843F010031360237F012B60
:102DE00035D02268136823F008031360637F012B3A
:102DF00033D02268136823F004031360A368E268E9
:102E0000134322691343626913436268013A2168DC
:102E10001343CB6100206062012384F82030A0E7D7
:102E20001A6842F080021A60C0E72268136843F013
:102E300040031360C2E72268136843F02003136065
:102E4000C4E72268136823F010031360C6E7226802
:102E5000136843F008031360C8E72268136843F05F
:102E600004031360CAE70120704790F82030013B4B
:102E7000DBB2012B05D9436A43F48023436201206E
:102E8000704730B40368D3F8002242F00102C3F85F
:102E900000224A6902F01F02012000FA02F2D3F870
:102EA0001C026FEA020C20EA0200C3F81C02C86987
:102EB000B0B9D3F80C020CEA0000C3F80C028C88FD
:102EC0004869CD6844EA0544483043F830400C88EE
:102ED00048698D6844EA0544483003EBC00044600B
:102EE000C86901281BD0886980BBD3F804020CEAAA
:102EF0000000C3F80402086970BBD3F814020CEA9E
:102F00000000C3F81402096A01292BD0D3F800226B
:102F100022F00102C3F80022002030BC7047D3F831
:102F20000C021043C3F80C028C8848690D6844EA0F
:102F30000544483043F830408C8948698D6844EA3C
:102F40000544483003EBC0004460CCE7D3F80402EA
:102F50001043C3F80402CEE7D3F814021043C3F8B9
:102F60001402D0E7D3F81C120A43C3F81C22CDE7A1
:102F700070B5044690F82030012B06D0436A43F424
:102F8000002343620126304670BDDEB2022380F882
:102F900020300268136823F00103136000F0A2FAE6
:102FA000054623685B6813F0010F0CD000F09AFA15
:102FB000431B0A2BF5D9636A43F40033636205238C
:102FC00084F82030DFE700266662DCE730B590F851
:102FD00020C00468A4680CF1FF3C5FFA8CFCBCF1D3
:102FE000010F62D814F0E05F59D0C4F3016C0124E2
:102FF00004FA0CF41C608B68002B3DD10D68CB6883
:10300000046843EA45550CF118031B01E5500368B9
:103010000C690CF1180E03EB0E135C600B7D012B99
:1030200035D0D17993791B0443EA0163517943EA9E
:10303000012314790168234301EB0C11C1F88C3191
:10304000D17893781B0443EA0163517843EA012362
:10305000117802680B4302EB0C12C2F88831026847
:103060000CF1180C4FEA0C1C52F80C3043F0010321
:1030700042F80C3000201DE04C6843EAC403CC68E1
:1030800023430CF11804240105682B51BFE70368A2
:1030900003EB0E13596841F480715960C1E7436A2C
:1030A00043F400134362012004E0436A43F48023A5
:1030B0004362012030BD90F820C00CF1FF3C5FFA64
:1030C0008CFCBCF1010F00F2A58030B451B904684A
:1030D000E46814F0030F10D1436A43F40013436211
:1030E00001207EE00468246914F0030F05D1436ACF
:1030F00043F400134362012073E0056801F11B04EF
:1031000024012C5904F004049460002C6BD1056850
:1031100001F11B0424012C59640D1460046801F1B1
:103120001B0C4FEA0C1C54F80C4004F00204D46051
:103130000468A444DCF8045015F0080F5BD00824A0
:103140001461046801F11B0C04EB0C146468C4F3F3
:1031500007249461046804EB0C146468240C546123
:10316000026802EB0112D2F8B8211A70026802EB71
:103170000112D2F8B821C2F307225A70026802EB9A
:103180000112D2F8B821C2F307429A70026802EB2A
:103190000112D2F8B821120EDA70026802EB0112A5
:1031A000D2F8BC211A71026802EB0112D2F8BC21DC
:1031B000C2F307225A71026802EB0112D2F8BC2155
:1031C000C2F307429A71026802EB0112D2F8BC21E5
:1031D000120EDA71C1B90268D36843F02003D360DC
:1031E000002030BC7047056801F11B0424012C59F4
:1031F000E408546092E701F11B0504EB05146468D0
:1032000004F00F0414619CE70268136943F0200383
:103210001361E5E7436A43F480234362012070476A
:1032200090F82030013BDBB2012B05D9436A43F40F
:103230008023436201207047026853690B43536146
:10324000002070477047704770477047704770475D
:103250007047704770477047704770472DE9F84FC7
:10326000054603685C69D3F804809F68D3F80CA016
:10327000D3F81090D3F818B014F001063BD017F033
:10328000010616D001229A6017F0020F08D117F03C
:10329000040F0CD117F0080606D04FF4805608E052
:1032A000FFF7D0FF002604E0FFF7CFFF01E04FF467
:1032B000006617F4807F0DD02B684FF480729A60FF
:1032C00017F4007F40F0968017F4806F00F096802E
:1032D00046F4005617F4803F0DD02B684FF480322F
:1032E0009A6017F4003F40F0938017F4802F00F0AD
:1032F000938046F4004614F0080F07D01AF0100F20
:1033000004D046F400762B681022DA6014F0040F23
:1033100003D01AF0080F40F0898014F0020F05D096
:103320002B68DB6813F0030F40F0878014F0400F28
:1033300007D019F0100F04D046F480662B681022D5
:103340001A6114F0200F02D019F0080F79D114F08F
:10335000100F04D02B681B6913F0030F78D114F4FD
:10336000003F02D018F0100F76D114F4803F02D045
:1033700018F0080F77D114F4004F37D018F0040F6D
:1033800031D014F4807F04D01BF0010F01D046F03F
:10339000010614F4007F04D01BF0020F01D046F0A8
:1033A000020614F4806F04D01BF0040F01D046F025
:1033B000040614F4006F16D01BF0700B13D0BBF191
:1033C000400F66D056D8BBF1200F5CD0BBF1300F58
:1033D0005CD0BBF1100F01D146F008062A68936952
:1033E00023F0700393612B6804225A60002E56D19B
:1033F000BDE8F88F2846FFF726FF6BE717F4006F4C
:1034000002D046F4804665E72846FFF71FFF61E7D4
:103410002846FFF719FF6EE717F4002F02D046F495
:10342000803668E72846FFF712FF64E72B6808221A
:10343000DA602846FFF70CFF6FE72846FFF786F9AA
:1034400074E72B6808221A612846FFF703FF7EE71E
:103450002846FFF7FEFE82E72B6810225A602846B6
:10346000FFF7F9FE81E72B6808225A602846FFF72C
:10347000F3FE80E7BBF1500F0ED0BBF1600FADD172
:1034800046F48076AAE746F01006A7E746F0200645
:10349000A4E746F04006A1E746F080069EE76B6A87
:1034A00033436B622846FFF7D8FEA1E710B503202F
:1034B00001F08EF80F20FFF779FA10B101242046B1
:1034C00010BD0446FFF7B0F9F9E70000034B1B7885
:1034D000034A11680B441360704700BF00000020CE
:1034E00010060020014B1868704700BF100600202E
:1034F00030B583B00446204B9B6D13F0805F0BD03A
:1035000000F0D4FFB0F5007F17D0802C1FD82DD04D
:10351000702C2DD000211BE0174DAB6D43F0805374
:10352000AB65AB6D03F080530193019B00F0BEFFD0
:10353000AB6D23F08053AB65E4E7802C03D9A02C5E
:1035400003D9022104E0002102E0012100E003216F
:103550000A4A136823F007030B431360136803F050
:1035600007038B4206D1002003B030BD0221EFE7F4
:103570000121EDE70120F7E70010024000200240A2
:10358000254A9368D26802F0030213F00C0309D0B5
:103590000C2B05D0042B3BD0082B3BD000200FE098
:1035A000012AF7D11C4A126812F0080F0CD11A4AEE
:1035B000D2F89420C2F30322184951F8220013B123
:1035C0000C2B06D000207047134A1268C2F3031276
:1035D000F2E7114BDB6803F00303022B16D0032B39
:1035E00000D10F480C49CA68C2F302120132CB68FD
:1035F000C3F3062300FB03F3B3FBF2F3C868C0F385
:10360000416001304000B3FBF0F070470548E9E746
:10361000044870470248704700100240C46F020817
:1036200000127A000024F400002800F01C83F0B59A
:1036300083B00446964B9D6805F00C05DE6806F0E5
:103640000306036813F0100F5AD0E5B10C2D18D003
:10365000A369002B00F0BB808D4A136843F001037F
:103660001360FFF73FFF0746894B1B6813F0020FFB
:1036700040F09A80FFF736FFC01B0228F4D90320E0
:10368000FCE2012EE4D1824B1B6813F0020F03D041
:10369000A369002B00F0E982206A7D4B1B6813F0C0
:1036A000080F5BD07A4B1B6803F0F00398425CD89C
:1036B000774B1A6842F008021A601A6822F0F0028A
:1036C000216A0A431A605A6822F47F42E16942EA99
:1036D00001225A60002D60D0FFF752FF6C4B9B68AF
:1036E000C3F303136B4AD35C03F01F03D8406A4B48
:1036F00018606A4B1868FFF759F9002840F0BE823D
:10370000236813F0010F00F08180082D75D00C2D77
:1037100071D06368B3F5803F00F09780B3F5A02FB8
:1037200000F099805A4B1A6822F480321A601A68A5
:1037300022F480221A606368002B00F09980FFF762
:10374000D1FE0746524B1B6813F4003F5ED1FFF7D2
:10375000C9FEC01B6428F5D903208FE24C4BD3F877
:1037600094301B0903F0F003A0E7FFF7C1FE002827
:1037700040F07D82464B1A6842F008021A601A68CF
:1037800022F0F002216A0A431A605A6822F47F424A
:10379000E16942EA01225A609EE7206AFFF7A8FE2B
:1037A000002899D0012069E2394B1A6842F00802DA
:1037B0001A601A6822F0F002216A0A431A605A68F5
:1037C00022F47F42E16942EA01225A6098E7304AD6
:1037D000136823F001031360FFF784FE07462C4BA8
:1037E0001B6813F0020F8BD0FFF77CFEC01B022872
:1037F000F5D9032042E2032E8BD1254B1B6813F42D
:10380000003F03D06368002B00F03382236813F07D
:10381000020F58D0042D45D00C2D41D0E368002B69
:1038200077D01B4A136843F480731360FFF75AFE86
:103830000646174B1B6813F4806F61D1FFF752FEE9
:10384000801B0228F5D9032018E2114A136843F4BB
:10385000803313606FE703F18043A3F53C331A68AC
:1038600042F480221A601A6842F480321A6062E7D9
:10387000FFF738FE0746064B1B6813F4003FC5D020
:10388000FFF730FEC01B6428F5D90320F6E100BF26
:1038900000100240FC6F0208080000200400002015
:1038A000022EBBD1A44B1B6813F4806F03D0E368D6
:1038B000002B00F0E081A04A536823F0F8532169FF
:1038C00043EA01635360236813F0080F4CD0636927
:1038D0009BB3994AD2F8943043F00103C2F8943074
:1038E000FFF700FE0646944BD3F8943013F0020F16
:1038F0003AD1FFF7F7FD801B0228F4D90320BDE180
:103900008D4A536823F0F853216943EA01635360F9
:10391000D9E7894A136823F480731360FFF7E2FD47
:103920000646854B1B6813F4806FCCD0FFF7DAFD99
:10393000801B0228F5D90320A0E17F4AD2F89430F9
:1039400023F00103C2F89430FFF7CCFD06467A4B12
:10395000D3F8943013F0020F06D0FFF7C3FD801B9D
:103960000228F4D9032089E1236813F0040F7AD0E8
:10397000714B9B6D13F0805F36D16F4B9A6D42F0A7
:1039800080529A659B6D03F080530193019B012641
:103990006A4B1B6813F4807F28D0A368012B39D0B1
:1039A000052B3FD0644BD3F8902022F00102C3F8DE
:1039B0009020D3F8902022F00402C3F89020A3684E
:1039C000002B3DD0FFF78EFD07465B4BD3F89030C0
:1039D00013F0020F46D1FFF785FDC01B41F288337B
:1039E0009842F2D9032049E10026D1E7534A1368EF
:1039F00043F480731360FFF775FD07464F4B1B6858
:103A000013F4807FC9D1FFF76DFDC01B0228F5D9E3
:103A1000032033E1484AD2F8903043F00103C2F862
:103A20009030CCE7444BD3F8902042F00402C3F826
:103A30009020D3F8902042F00102C3F89020BEE716
:103A4000FFF750FD07463C4BD3F8903013F0020FC0
:103A500008D0FFF747FDC01B41F288339842F2D9E6
:103A600003200BE1E6B9236813F0200F35D0636A19
:103A7000E3B1314AD2F8983043F00103C2F89830EC
:103A8000FFF730FD06462C4BD3F8983013F0020FA9
:103A900023D1FFF727FD801B0228F4D90320EDE096
:103AA000254A936D23F080539365DCE7224AD2F8D0
:103AB000983023F00103C2F89830FFF713FD064653
:103AC0001D4BD3F8983013F0020F06D0FFF70AFD14
:103AD000801B0228F4D90320D0E0A36A002B00F059
:103AE000CC80022B17D00C2D00F0CC80124A13682A
:103AF00023F080731360FFF7F5FC04460E4B1B6840
:103B000013F0007F00F0A880FFF7ECFC001B0228F8
:103B1000F4D90320B2E0084BDB6803F00301E26A4A
:103B200091420DD00C2D00F0AB80034B1B6813F0BD
:103B3000806F2FD00120A1E00010024000700040F3
:103B400003F07002216B0139B2EB011FEAD103F4DB
:103B5000FE42616BB2EB012FE4D103F07842A16B1E
:103B6000B2EBC16FDED103F4C001E26B5208013A3F
:103B7000B1EB425FD6D103F0C063226C5208013A28
:103B8000B3EB426FCED1404B1B6813F0007F49D09E
:103B9000002073E03C4A136823F080731360FFF742
:103BA000A1FC0546384B1B6813F0007F06D0FFF7D9
:103BB00099FC401B0228F5D903205FE0324AD36804
:103BC00032491940E36A206B013843EA0013606B05
:103BD00043EA0023E06B4008013843EA4053206C7D
:103BE0004008013843EA4063A06B43EAC0631943CD
:103BF000D160136843F080731360D36843F080731F
:103C0000D360FFF76FFC04461F4B1B6813F0007F67
:103C100006D1FFF767FC001B0228F5D903202DE031
:103C200000202BE0184B1A6842F080721A60DA68A4
:103C300042F08072DA60FFF755FC0446124B1B68B5
:103C400013F0007F06D1FFF74DFC031B022BF5D9C3
:103C5000032013E0002011E00B4AD1680C4B0B400D
:103C6000D36000200AE001207047012006E0012017
:103C700004E0012002E0012000E0002003B0F0BDDC
:103C80000120FBE70120F9E7001002408C809D0134
:103C9000FCFFEEFE002800F0AF8070B50D46044634
:103CA000594B1B6803F007038B420BD2564A13682B
:103CB00023F007030B431360136803F007038B42E1
:103CC00040F09C80236813F0020F0CD0A2684F4B89
:103CD0009B6803F0F0039A4205D94C498B6823F0A6
:103CE000F0031A438A60236813F0010F39D0636828
:103CF000032B09D0022B26D063BB444A126812F072
:103D0000020F06D1012076E0404A126812F0007FCF
:103D100076D03E498A6822F0030213438B60FFF796
:103D2000E1FB0646394B9B6803F00C036268B3EB7A
:103D3000820F16D0FFF7D6FB801B41F288339842E2
:103D4000F0D9032057E0314A126812F4003FE0D165
:103D5000012050E02D4A126812F4806FD9D1012061
:103D600049E0236813F0020F0CD0A268274B9B6830
:103D700003F0F0039A4205D224498B6823F0F00344
:103D80001A438A60204B1B6803F00703AB420AD931
:103D90001D4A136823F007032B431360136803F0D5
:103DA0000703AB422ED1236813F0040F06D0174A45
:103DB000936823F4E063E1680B439360236813F096
:103DC000080F07D0114A936823F46053216943EA2E
:103DD000C1039360FFF7D4FB0C4B9B68C3F3031341
:103DE0000B4AD35C03F01F03D8400A4B18600A4B00
:103DF0001868FEF7DBFD70BD012070470120FAE76F
:103E00000120F8E70120F6E7002002400010024000
:103E1000FC6F02080800002004000020014B186815
:103E2000704700BF0800002008B5FFF7F7FF054BFB
:103E30009B68C3F30223044AD35C03F01F03D840FA
:103E400008BD00BF00100240F46F02080F2303609A
:103E50000B4B9A6802F0030242609A6802F0F0028B
:103E600082609A6802F4E062C2609B68DB0803F437
:103E7000E0630361034B1B6803F007030B607047AB
:103E80000010024000200240F8B504460D46594B90
:103E9000DB6813F0030F18D0564BDB6803F0030305
:103EA0000268934202D001263046F8BD002A00F095
:103EB0009C80504BDB68C3F302130133426893428A
:103EC00001D00126F0E7002619E00368022B55D047
:103ED000032B5AD0012B40F08A80464A126812F018
:103EE000020F5ED04348C26822F073026168013954
:103EF00043EA01131343C3600026002ED4D13D4A88
:103F0000136823F080631360FFF7ECFA0746394B20
:103F10001B6813F0006F05D0FFF7E4FAC31B022BF8
:103F2000F5D90326002EBFD1002D3CD131490B69B4
:103F300023F0784323F4FE43A068E268D20642EA05
:103F4000002213430B612B4A136843F08063136014
:103F5000FFF7C8FA0546274B1B6813F0006F05D121
:103F6000FFF7C0FA401B0228F5D90326002E9BD18B
:103F7000204A1369A1690B43136195E71D4A126832
:103F800012F4806FAED101268EE71A4A126812F43D
:103F9000003FA7D1174A126812F4802FA2D1012640
:103FA00082E70126A9E7012D0FD01248026922F00D
:103FB000C06222F4FE42A16863695B08013B5B06B4
:103FC00043EA01231A430261BDE70A48026922F469
:103FD000C00222F4FE42A16823695B08013B5B0535
:103FE00043EA01231A430261ADE701265CE701269B
:103FF0005AE700BF001002402DE9F04182B00446AC
:10400000036813F4006F26D0C36BB3F5000F06D01E
:10401000B3F5400F1DD09BB1012637461DE0AE4AD7
:10402000D36843F48033D3600027AB4AD2F888309A
:1040300023F44003E16B0B43C2F8883000260CE008
:1040400000210430FFF720FF07460028EDD0064688
:1040500003E00027E9E700263746236813F4003F12
:104060006BD09D4B9B6D13F0805F4CD19A4B9A6D3A
:1040700042F080529A659B6D03F080530193019B3F
:104080004FF00108954A136843F480731360FFF7FB
:1040900029FA0546914B1B6813F4807F05D1FFF781
:1040A00021FA401B0228F5D90327002F40D18A4B63
:1040B000D3F8903013F4407318D0226D9A4212D086
:1040C000854AD2F8903023F44073D2F8901041F42E
:1040D0008031C2F89010D2F8901021F48031C2F8EB
:1040E0009010C2F8903013F0010F0FD1002F40F064
:1040F000C980794AD2F8903023F44073216D0B4384
:10410000C2F8903015E04FF00008BBE7FFF7EAF97E
:104110000546714BD3F8903013F0020FE6D1FFF74C
:10412000E1F9401B41F288339842F2D90327DDE7D9
:104130003E46B8F1000F40F0A780236813F0010F4E
:1041400008D0654AD2F8883023F00303216A0B4374
:10415000C2F88830236813F0020F08D05E4AD2F804
:10416000883023F00C03616A0B43C2F8883023685F
:1041700013F0200F08D0584AD2F8883023F4406357
:10418000A16A0B43C2F88830236813F4007F08D07B
:10419000514AD2F8883023F44023616B0B43C2F8B4
:1041A0008830236813F4806F08D04B4AD2F88830E7
:1041B00023F44013A16B0B43C2F88830236813F03B
:1041C000400F08D0444AD2F8883023F44053E16AC3
:1041D0000B43C2F88830236813F4807F08D03E4A2E
:1041E000D2F8883023F44033216B0B43C2F8883077
:1041F000236813F4005F0FD0374AD2F8883023F0D9
:104200004063216C0B43C2F88830236CB3F1006F1C
:1042100040D0B3F1806F42D0236813F4802F0FD0C9
:104220002D4AD2F8883023F04063616C0B43C2F80A
:104230008830636CB3F1006F39D0B3F1806F3BD03D
:10424000236813F4804F0CD0234AD2F8883023F02F
:104250004053A16C0B43C2F88830A36CB3F1805F6C
:1042600032D0236813F4004F08D01B4AD2F88830AC
:1042700023F08043E16C0B43C2F88830304602B033
:10428000BDE8F0813E4654E7134A936D23F0805316
:10429000936552E7D36843F48013D360BCE70121F0
:1042A000201DFFF7F1FD0028B6D00646B4E7D3681D
:1042B00043F48013D360C3E70121201DFFF7E4FD21
:1042C0000028BDD00646BBE70221201DFFF7DCFD1C
:1042D0000028C6D00646C4E7001002400070004027
:1042E000F0B583B0002362E085685E000324B4402B
:1042F00025EA0405CC68B4402C438460456825EA6F
:104300000C054C68C4F300149C402C4344605FE0EF
:10431000DD08083550F8254003F0070C4FEA8C0CF7
:104320004FF00F0E0EFA0CFE24EA0E0E0C6904FA82
:104330000CF444EA0E0440F8254060E0022400E05A
:10434000002404FA0EF42C430CF1020C4C4D45F8F9
:104350002C404C4CA568D44325EA02064F6817F45C
:10436000801F01D042EA0506464DAE60ED6804EAC2
:1043700005064F6817F4001F01D042EA0506414DBB
:10438000EE606D6804EA05064F6817F4003F01D03F
:1043900042EA05063B4D6E602D682C404E6816F4CF
:1043A000803F01D042EA0504364A146001330A68AE
:1043B00032FA03F462D04FF0010C0CFA03FC1CEA51
:1043C0000202F3D04C6804F00304013C012C8BD9A9
:1043D0004C6804F00304032C0CD0C4685D004FF05B
:1043E000030C0CFA05FC24EA0C0C8C68AC4044EA83
:1043F0000C04C4604C6804F00304022C88D00468E8
:104400004FEA430E4FF0030C0CFA0EFC24EA0C0C9E
:104410004C6804F0030404FA0EF444EA0C0404604B
:104420004C6814F4403FC1D0174C256E45F001058F
:104430002566246E04F001040194019C4FEA930C5C
:104440000CF102050E4C54F8255003F0030E4FEA10
:104450008E0E0F2404FA0EF425EA0405B0F1904FF5
:104460003FF46EAF094CA04206D004F58064A04230
:104470003FF464AF072464E7012462E703B0F0BDB2
:104480000000014000040140001002400004004808
:104490000AB18161704781627047436901EA030292
:1044A00021EA030141EA024181617047024B186829
:1044B00000F4C060704700BF00700040B0F5007F9E
:1044C0000FD01F4B1B6803F4C063B3F5806F34D06B
:1044D0001B4A136823F4C06343F480631360002015
:1044E0007047174B1B6803F4C063B3F5007F20D0FF
:1044F000134A136823F4C06343F400731360114B31
:104500001B68322202FB03F30F4AA2FB03239B0C1E
:10451000013300E0013B0A4A526912F4806F01D076
:10452000002BF7D1064B5B6913F4806F03D1002099
:10453000704700207047032070470020704700BF7D
:10454000007000400800002083DE1B43002807DBCA
:1045500000F01F02400901239340024A42F8203034
:10456000704700BF00E100E0002808DB0901C9B284
:1045700000F1604000F5614080F80013704700F0E2
:104580000F000901C9B2014B1954704714ED00E046
:1045900000B500F00700C0F1070CBCF1040F28BF04
:1045A0004FF0040C031D062B0FD9C31E4FF0FF3E26
:1045B0000EFA0CF021EA000199400EFA03FE22EAFD
:1045C0000E0241EA02005DF804FB0023EEE7000062
:1045D000074AD36823F4E0631B041B0C000200F4B9
:1045E000E060034343F0BF6343F40033D36070479C
:1045F00000ED00E010B50446054BD868C0F302207A
:10460000FFF7C6FF01462046FFF7AEFF10BD00BF13
:1046100000ED00E008B5FFF799FF08BD002838D08D
:1046200010B50446437F1BB30223637723791BBB7A
:104630002368194A5A612268936823F0180393602B
:10464000637913BB23684FF0FF321A6122689368C5
:1046500023F0600361690B4393602268936823F041
:104660008003A1690B43936001236377002010BD91
:104670000377FEF785F9D7E7E268A168204600F0E6
:104680000DF80028DCD00120F1E7236822691A61C7
:10469000DCE70120704700BFB71DC10411F0010F16
:1046A00030D010B41F231C46013B34B103F01F0C63
:1046B00021FA0CFC1CF0010FF5D0182A24D8DFE8F1
:1046C00002F00F232323232323231D232323232328
:1046D000232319232323232323230D00062B17D859
:1046E0000368596101688B6823F0180313438B60DA
:1046F00000200AE0072BF3D9012006E00F2BEFD9A9
:10470000012002E00120704701205DF8044B704752
:104710000120FAE7044B054A9A60D3F8882042F456
:104720007002C3F88820704700ED00E00020020806
:1047300000F1080343604FF0FF328260C360036101
:1047400000230360704700230361704743684B6098
:104750009A688A6051609960086103680133036058
:10476000704730B40D68B5F1FF3F11D000F1080378
:104770001C465B681A68AA42FAD963684B60996064
:104780008C606160086103680133036030BC70476E
:104790000469F2E70369416882688A604168516090
:1047A0005A68824206D0002202611A68013A1A60F1
:1047B0001868704782685A60F5E710B5044601F042
:1047C00029FEA26BE36B9A4204D0002401F044FE60
:1047D000204610BD0124F9E710B5044601F01AFE89
:1047E000A36B23B9012401F037FE204610BD00243D
:1047F000F9E770B504461546866B026C5AB9036832
:104800001BB100200136A66370BD806801F056F828
:104810000023A360F6E76DB9406802F063FB6368AC
:10482000226C13446360A268934219D323686360C7
:104830002846E7E7C06802F055FBE368226C514266
:104840009B1AE3602268934202D2A3680B44E360A0
:10485000022D01D00020D5E726B1013E0020D1E78E
:104860002846CFE70020CDE70346026C6AB110B5B9
:104870000846D9681144D9609C68A14201D31968DF
:10488000D960D96802F02EFB10BD704738B50546D7
:1048900001F0C0FD95F8454064B201E0013C64B20E
:1048A000002C0ADD6B6A43B105F1240000F05AFFC9
:1048B0000028F3D000F0ECFFF0E7FF2385F8453047
:1048C00001F0CAFD01F0A6FD95F8444064B201E094
:1048D000013C64B2002C0ADD2B6943B105F11000E4
:1048E00000F040FF0028F3D000F0D2FFF0E7FF23F4
:1048F00085F8443001F0B0FD38BD38B5E0B10D4663
:10490000044601F087FD2368E26B216C01FB023055
:10491000A0600020A0636360013A02FB0133E36002
:10492000FF2384F8443084F84530FDB9236963B926
:1049300001F092FD012038BD4FF0500383F3118840
:10494000BFF36F8FBFF34F8FFEE704F1100000F04D
:1049500009FF0028ECD04FF0E0234FF08052C3F85D
:10496000042DBFF34F8FBFF36F8FE1E704F1100009
:10497000FFF7DEFE04F12400FFF7DAFED8E738B5D2
:104980001D46049C0B4649B92460E0632364012161
:104990002046FFF7B2FF84F84C5038BD2260F4E7A0
:1049A00040B94FF0500383F31188BFF36F8FBFF30B
:1049B0004F8FFEE710B584B01C46844653B192B1C8
:1049C00089B94FF0500383F31188BFF36F8FBFF3A2
:1049D0004F8FFEE74FF0500383F31188BFF36F8FC3
:1049E000BFF34F8FFEE76AB150230393039B502B15
:1049F00013D04FF0500383F31188BFF36F8FBFF3D1
:104A00004F8FFEE70029EFD04FF0500383F311885A
:104A1000BFF36F8FBFF34F8FFEE7039B012384F833
:104A2000463000949DF818306046FFF7A8FF2046F6
:104A300004B010BD40B94FF0500383F31188BFF3A9
:104A40006F8FBFF34F8FFEE7F0B583B00D4614466E
:104A5000064601FB00F0503001F0B0FB074650B1B4
:104A6000002380F846300090234600F1500229468A
:104A70003046FFF784FF384603B0F0BDF0B585B08F
:104A8000019288B10F461D460446B1B1022D20D1D6
:104A9000E36B012B1DD04FF0500383F31188BFF35C
:104AA0006F8FBFF34F8FFEE74FF0500383F31188F2
:104AB000BFF36F8FBFF34F8FFEE7036C002BE5D082
:104AC0004FF0500383F31188BFF36F8FBFF34F8F05
:104AD000FEE700F0E3FE064658B9019B002B48D0E4
:104AE0004FF0500383F31188BFF36F8FBFF34F8FE5
:104AF000FEE700263DE02A4639462046FFF779FECC
:104B0000636A7BB948B14FF0E0234FF08052C3F89D
:104B1000042DBFF34F8FBFF36F8F01F09DFC012079
:104B200005B0F0BD04F1240000F01CFE0028F4D014
:104B30004FF0E0234FF08052C3F8042DBFF34F8FA6
:104B4000BFF36F8FE9E701F087FC0020E8E702A8D8
:104B500000F04EFE012619E0002384F8443021E0E5
:104B6000002384F8453023E02046FFF78FFE00F055
:104B7000D7FC01F04FFCA26BE36B9A42BBD3022D32
:104B8000B9D0019B002BDED0002EE0D001F064FCF8
:104B900000F024FC01F03EFC94F8442052B2B2F143
:104BA000FF3FD9D094F8452052B2B2F1FF3FD7D0A1
:104BB00001F052FC01A902A800F026FED8B9204657
:104BC000FFF7FBFD0028CFD0019904F1100000F0A1
:104BD00095FD2046FFF75AFE00F0A2FC0028C8D140
:104BE0004FF0E0234FF08052C3F8042DBFF34F8FF6
:104BF000BFF36F8FBDE72046FFF748FE00F090FC43
:104C000000208DE72DE9F84390B10F4616461C466B
:104C10000546B1B1022C20D1EB6B012B1DD04FF01A
:104C2000500383F31188BFF36F8FBFF34F8FFEE7FD
:104C30004FF0500383F31188BFF36F8FBFF34F8F93
:104C4000FEE7036C002BE5D04FF0500383F311888F
:104C5000BFF36F8FBFF34F8FFEE701F001FDEFF35E
:104C600011884FF0500383F31188BFF36F8FBFF3A8
:104C70004F8FAA6BEB6B9A4206D3022C04D0002014
:104C800088F31188BDE8F88395F845904FFA89F9C3
:104C9000AB6B224639462846FFF7ABFDB9F1FF3F23
:104CA00006D009F101035BB285F845300120E7E742
:104CB0006B6A0BB90120E3E705F1240000F052FD17
:104CC00018B126B101203060DAE70120D8E70120D1
:104CD000D6E7F0B585B0019290B10F460446C1B158
:104CE00000F0DCFD064600BB019B002B5ED04FF0C0
:104CF000500383F31188BFF36F8FBFF34F8FFEE72D
:104D00004FF0500383F31188BFF36F8FBFF34F8FC2
:104D1000FEE7036C002BE3D04FF0500383F31188C0
:104D2000BFF36F8FBFF34F8FFEE700263EE039469B
:104D30002046FFF799FD013DA563236923B901F0E2
:104D40008BFB012005B0F0BD04F1100000F00AFD5E
:104D50000028F4D04FF0E0234FF08052C3F8042D28
:104D6000BFF34F8FBFF36F8FE9E701F075FB0020B2
:104D7000E8E702A800F03CFD012621E0002384F8CA
:104D8000443029E0002384F845302BE02046FFF72B
:104D90007DFD00F0C5FB09E02046FFF777FD00F040
:104DA000BFFB2046FFF718FD00283FD101F032FB82
:104DB000A56B002DBBD1019B002BD6D0002ED8D0E7
:104DC00001F04AFB00F00AFB01F024FB94F84430A8
:104DD0005BB2B3F1FF3FD1D094F845305BB2B3F191
:104DE000FF3FCFD001F038FB01A902A800F00CFD75
:104DF0000028D1D12046FFF7EFFC0028C6D001994A
:104E000004F1240000F07AFC2046FFF73FFD00F09B
:104E100087FB0028CAD14FF0E0234FF08052C3F83F
:104E2000042DBFF34F8FBFF36F8FBFE7002089E7DB
:104E30002DE9F843B0B10D4690460446D9B101F0D2
:104E40000FFCEFF311874FF0500383F31188BFF38A
:104E50006F8FBFF34F8FA66BCEB9002087F31188F9
:104E6000BDE8F8834FF0500383F31188BFF36F8FD1
:104E7000BFF34F8FFEE7036C002BE0D04FF05003E1
:104E800083F31188BFF36F8FBFF34F8FFEE794F862
:104E900044904FFA89F929462046FFF7E5FC731E36
:104EA000A363B9F1FF3F06D009F101035BB284F8B7
:104EB00044300120D2E723690BB90120CEE704F189
:104EC000100000F04FFC30B1B8F1000F05D0012008
:104ED000C8F80000C2E70120C0E70120BEE70000DB
:104EE0000023072B0CD8074A52F833200AB10133AC
:104EF000F7E7044A42F8331002EBC30250607047F0
:104F0000704700BF1406002070B504460D461646D3
:104F100001F080FA94F844305BB2B3F1FF3F0DD05A
:104F200094F845305BB2B3F1FF3F0BD001F094FA37
:104F3000A36B5BB12046FFF7A9FC70BD002384F88A
:104F40004430EDE7002384F84530EFE73246294648
:104F500004F1240000F0EAFBECE70000084B1B68BA
:104F60001B6823B9074B4FF0FF321A607047044BA0
:104F70001B68DB68DB685A68024B1A60704700BF29
:104F8000C40600205C0600202DE9F04780460D464F
:104F900017469946089EDDF824A00A9C9200A52198
:104FA000206B01F072FF236B07F18042013A03EBA3
:104FB000820727F00707A5B34FF0000CBCF10F0FD5
:104FC00009D815F80C3004EB0C0282F8343013B118
:104FD0000CF1010CF2E7002384F84330372E00D99E
:104FE0003726E662E66400252565201DFFF7ABFB4A
:104FF00004F11800FFF7A7FB2461C6F13806A6618B
:105000006462656584F858504A464146384601F066
:10501000D3F92060BAF1000F01D0CAF80040BDE812
:10502000F087002384F83430D8E7000038B5002436
:1050300007E004EB840293000E481844FFF778FB66
:105040000134372CF5D90C4D2846FFF771FB0B4C7A
:105050002046FFF76DFB0A48FFF76AFB0948FFF798
:1050600067FB0948FFF764FB084B1D60084B1C6099
:1050700038BD00BFF0060020DC060020C806002076
:10508000AC0600209806002080060020C406002000
:10509000C006002010B5044601F0BCF9224A13688E
:1050A00001331360214B1B685BB1214B1B686BB94B
:1050B0001E4B1B68DA6AE36A9A4207D81B4B1C60D6
:1050C00004E01A4B1C601368012B29D0194A13689D
:1050D000013313606364E06A174B1B68984201D97F
:1050E000154B186000EB8000211D144B03EB800072
:1050F000FFF72CFB01F0B0F90D4B1B687BB10B4B9C
:105100001B68DA6AE36A9A4209D24FF0E0234FF053
:105110008052C3F8042DBFF34F8FBFF36F8F10BDC4
:10512000FFF784FFD2E700BF7C060020500B002071
:10513000700600206006002074060020F0060020A3
:1051400010B5044690F8593063B1012B11D0022BF1
:105150000ED04FF0500383F31188BFF36F8FBFF36E
:105160004F8FFEE7006B01F0ABF8204601F0A8F886
:1051700010BD01F0A5F8FBE70F4B1B68D3B110B5CC
:1051800001F048F90D4BDB68DC68201DFFF702FBDE
:105190000B4A1368013B1360074A1368013B136015
:1051A00001F05AF92046FFF7CBFF034B1B68002B99
:1051B000E6D110BD704700BF94060020980600207D
:1051C0007C06002008B5FFF7D7FF074B1B68012BB3
:1051D000F9D94FF0E0234FF08052C3F8042DBFF30C
:1051E0004F8FBFF36F8FEEE7F006002070B50446D7
:1051F0000D46174B1E68174B18680430FFF7CAFAA4
:10520000B4F1FF3F0DD03444124B1B685C60A642E2
:1052100010D9114B18680F4B19680431FFF7A1FA28
:1052200070BD002DEFD00B4B196804310B48FFF710
:105230008DFAF5E70A4B1868064B19680431FFF739
:1052400090FA084B1B68A342EAD9064B1C60E7E7BB
:1052500078060020500B0020C006002080060020A9
:10526000C40600205C06002030B587B00B9C7CB1E2
:105270000C9DB5B15C250495049D5C2D1AD04FF0B2
:10528000500383F31188BFF36F8FBFF34F8FFEE797
:105290004FF0500383F31188BFF36F8FBFF34F8F2D
:1052A000FEE74FF0500383F31188BFF36F8FBFF316
:1052B0004F8FFEE7049D0C9D2C63022485F8594016
:1052C00000240394029505AC01940A9C0094FFF716
:1052D0005BFE0C98FFF7DEFE059807B030BD2DE9A8
:1052E000F04385B00746884614461E46900000F0FD
:1052F00065FF08B381465C2000F060FF0546A8B159
:10530000C0F83090002380F85930039302900D9B31
:1053100001930C9B00933346224641463846FFF7E3
:1053200033FE2846FFF7B6FE012007E0484600F0AE
:10533000C7FF4FF0FF3001E04FF0FF3005B0BDE890
:10534000F083000010B588B000240594069407AAE5
:1053500006A905A800F0B4FE059B0293069B0193E5
:1053600000942346079A17491748FFF77DFF174B0C
:105370001860C0B100F056FB012815D14FF0500362
:1053800083F31188BFF36F8FBFF34F8F104B4FF034
:10539000FF321A600F4B01221A600F4B00221A6075
:1053A00001F0D2F803E00020B0F1FF3F01D008B0D7
:1053B00010BD4FF0500383F31188BFF36F8FBFF31D
:1053C0004F8FFEE7406F0208C551020858060020C3
:1053D0005C0600207006002078060020024A136850
:1053E00001331360704700BF54060020014B18685A
:1053F000704700BF7806002008B501F031F9014B75
:10540000186808BD78060020F8B53A4B1B68002BD9
:1054100069D1394B1D6801351D60C5B9374B1B6813
:105420001B6843B14FF0500383F31188BFF36F8FB4
:10543000BFF34F8FFEE7314A1168314B1868106097
:105440001960304A136801331360FFF787FD2E4B54
:105450001B68AB423DD900272C4B1B68DB6A03EB72
:1054600083039A002A4B9B58012B00D90127294B13
:105470001B68002B3CD001273AE001271F4B1B681B
:105480001B6843B31D4B1B68DB68DC6863689D4287
:1054900026D3261D3046FFF77DF9A36A1BB104F120
:1054A0001800FFF777F9E36A1B4A1268934201D9A3
:1054B000194A136003EB83039A00314614481044E1
:1054C000FFF744F9E26A114B1B68DB6A9A42D4D2B7
:1054D000D4E70027D2E70C4B4FF0FF321A60BBE74E
:1054E000094A1360B8E70D4A1368013313600027B7
:1054F0003846F8BD5406002078060020C406002077
:10550000C0060020640600205C060020500B00202E
:10551000F006002068060020740600206C060020BB
:1055200038B5354B1B6843B94FF0500383F31188EE
:10553000BFF36F8FBFF34F8FFEE700F06BFF2E4B73
:105540001A68013A1A601B68002B4FD12B4B1B685D
:105550000BB900244BE00024294B1B681BB3284BDC
:10556000DB68DC6804F11800FFF714F9251D2846F4
:10557000FFF710F9E06A234B1B68984201D9214BD1
:10558000186000EB800029461F4B03EB8000FFF7FB
:10559000DDF8E26A1D4B1B68DB6A9A42DCD31C4BC8
:1055A00001221A60D8E70CB1FFF7D8FC194B1C6830
:1055B00084B9174B1C68D4B14FF0E0234FF08052F0
:1055C000C3F8042DBFF34F8FBFF36F8F01240EE09C
:1055D000013C07D0FFF718FF0028F9D00C4B01223F
:1055E0001A60F5E70B4B00221A60E2E7002400F096
:1055F00033FF204638BD00BF540600207C06002043
:10560000AC06002074060020F0060020500B00209D
:10561000680600206C06002010B5A8B10446104BA7
:105620001B6843B14FF0500383F31188BFF36F8FB2
:10563000BFF34F8FFEE7FFF7D1FE00212046FFF7B3
:10564000D5FDFFF76DFF48B94FF0E0234FF08052D2
:10565000C3F8042DBFF34F8FBFF36F8F10BD00BF92
:1056600054060020204B1B681BB1204B01221A60FE
:1056700070471E4B00221A601D4B1B6803EB830111
:105680008A001C498A585AB90BB1013BF6E74FF022
:10569000500383F31188BFF36F8FBFF34F8FFEE783
:1056A000084603EB83018A0002445168496851604F
:1056B00003EB830C4FEA8C020832024491420BD078
:1056C00003EB830291000B4A0A445268D1680A4AEC
:1056D0001160074A13607047486862469100054AA6
:1056E0000A445060ECE700BF540600206806002022
:1056F00074060020F0060020500B002058B110B5B1
:105700000C46094A11681831FFF72BF80121204691
:10571000FFF76CFD10BD4FF0500383F31188BFF30A
:105720006F8FBFF34F8FFEE7500B002038B570B17D
:105730000D4614460A4A11681831FFF707F80CB1F4
:105740004FF0FF3521462846FFF750FD38BD4FF09A
:10575000500383F31188BFF36F8FBFF34F8FFEE7C2
:10576000500B002038B5C368DC6824B304F1180579
:105770002846FFF70FF8184B1B682BBB251D284642
:10578000FFF708F8E06A154B1B68984201D9134BE4
:10579000186000EB80002946114B03EB8000FEF7F8
:1057A000D5FFE26A0F4B1B68DB6A9A4211D90120D0
:1057B0000D4B186038BD4FF0500383F31188BFF3D1
:1057C0006F8FBFF34F8FFEE729460848FEF7BEFFF5
:1057D000E7E70020EEE700BF540600207406002033
:1057E000F0060020500B002068060020AC060020C8
:1057F000034B1B680360034B1B684360704700BF8B
:105800006406002078060020E0B170B50C4605461D
:1058100009B300F0FFFD1C4B19686B68C81A2268B9
:10582000B2F1FF3F28D0DFF864C0DCF800C02E687A
:10583000664501D08B4224D9824215D800232360CB
:1058400001241AE04FF0500383F31188BFF36F8FE8
:10585000BFF34F8FFEE74FF0500383F31188BFF380
:105860006F8FBFF34F8FFEE75B1A13442360284608
:10587000FFF7BEFF002400E0002400F0EDFD20460D
:1058800070BD0124F9E700BF7806002064060020FF
:10589000014B01221A60704768060020054B1B6807
:1058A00033B1054B1B680BB10020704702207047D5
:1058B00001207047700600205406002000283BD0CD
:1058C00038B504461E4B1B68834208D04FF0500386
:1058D00083F31188BFF36F8FBFF34F8FFEE7036D24
:1058E00043B94FF0500383F31188BFF36F8FBFF3B9
:1058F0004F8FFEE7013B0365C16AC26C91421DD028
:105900000BB1002038BD051D2846FEF743FFE06CB3
:10591000E062C0F13803A3610A4B1B68984201D9C9
:10592000084B186000EB80002946074B03EB800012
:10593000FEF70CFF0120E5E7002070470020E1E7BB
:10594000500B002074060020F0060020064B1A6859
:1059500013682BB90123036023B9D3681868704713
:105960000023F8E700207047540C002008B5416080
:10597000006191420CD8D21A83699A4201D3012066
:1059800008BD011D094B1868FEF7EBFE0020F7E784
:105990009A4201D2994206D2011D054B1868FEF7C2
:1059A000E0FE0020ECE70120EAE700BF500C0020F9
:1059B000540C002030B583B000F02CFD114B1B6857
:1059C0001BB100F049FD03B030BD0F4D2846FEF776
:1059D000AFFE0E4C2046FEF7ABFE0D4B1D600D4B8F
:1059E0001C60002300930C4B0C4A10210A20FEF788
:1059F000D7FF044B18600028E3D00949FFF770FA7D
:105A0000DFE700BF4C0C00206C0C0020580C00207D
:105A1000540C0020500C0020540B0020A40B00203C
:105A2000486F020810B588B0FFF7C4FF124B1B681F
:105A3000CBB100240594069407AA06A905A800F096
:105A40004BFB059B0293069B019302230093234685
:105A5000079A0A490A48FFF707FC0A4B186010B179
:105A6000012008B010BD4FF0500383F31188BFF33D
:105A70006F8FBFF34F8FFEE74C0C0020506F020872
:105A8000895D0208480C0020B8B19C4603461848BE
:105A9000006858B300B585B00091019202930529C2
:105AA0001CDCFFF7FBFE022810D000231A466946D3
:105AB0000F480068FEF7E2FF15E04FF0500383F354
:105AC0001188BFF36F8FBFF34F8FFEE70023069A55
:105AD000694607480068FEF7D1FF04E000236246EC
:105AE0006946FFF78FF805B05DF804FB00207047AA
:105AF0004C0C002070B582B01B4B1B681A6862B357
:105B0000DB681E68DC68251D2846FEF743FE236A15
:105B10002046984794F8283013F0040FECD0A3697E
:105B200033449E4207D26360246129460E4B1868B5
:105B3000FEF717FEE0E7002100910B4632462046B3
:105B4000FFF7A2FF0028D7D14FF0500383F311884D
:105B5000BFF36F8FBFF34F8FFEE7044A106802490F
:105B60000860136002B070BD540C0020500C00207F
:105B700038B50546FFF73AFC0446074B1B688342DD
:105B800005D800232B60044B1C60204638BDFFF76E
:105B9000B1FF01232B60F6E7440C002070B582B002
:105BA00006460D4617490968C968CC68201DFEF7EE
:105BB000F1FD94F828C01CF0040F08D12CF0010C62
:105BC00084F828C0236A2046984702B070BDA169B6
:105BD00033462A4631442046FFF7C8FE0028F1D05C
:105BE000002100910B4632462046FFF74DFF00286A
:105BF000E8D14FF0500383F31188BFF36F8FBFF3E9
:105C00004F8FFEE7540C002070B582B006460C465C
:105C1000FFF7E4FB01A8FFF7ABFF019B33BB054691
:105C2000E4B9B04213D22246711B124B1868FFF739
:105C30006BF9FFF775FCD8B94FF0E0234FF08052B5
:105C4000C3F8042DBFF34F8FBFF36F8F10E0FFF742
:105C500067FC29463046FFF7A1FF09E0064A1268B3
:105C600012680AB90124DEE71C46DCE7FFF758FC9E
:105C700002B070BD4C0C0020500C002010B588B054
:105C800002E0049B002B0FDA002204A93D4B1868A8
:105C9000FFF71FF8002872D0049B002BF1DA079958
:105CA0000698059B9847ECE7069C636913B1201D95
:105CB000FEF770FD03A8FFF75BFF0246049B092B6C
:105CC000E2D8DFE803F00505052F364E05052F362F
:105CD00094F8283043F0010384F82830059BA1692B
:105CE00019442046FFF742FE0028CDD0236A204603
:105CF000984794F8283013F0040FC5D0A26900210A
:105D000000910B46059802442046FFF7BDFE00288F
:105D1000BAD14FF0500383F31188BFF36F8FBFF3F5
:105D20004F8FFEE794F8283023F0010384F82830E1
:105D3000AAE794F8283043F0010384F82830059945
:105D4000A16129B1034601442046FFF70FFE9BE7FE
:105D50004FF0500383F31188BFF36F8FBFF34F8F62
:105D6000FEE794F8283013F0020F04D023F001036B
:105D700084F8283088E7204600F0A2FA84E708B0CB
:105D800010BD00BF4C0C002000B583B001A8FFF788
:105D9000DDFD0199FFF738FFFFF770FFF6E708B563
:105DA0004FF0E0231B69FFF779FD012800D108BD02
:105DB00000F0A0FBFBE70000EFF305832BB9064BD7
:105DC000186828B901221A6070476FF00500704703
:105DD0004FF0FF30704700BF38130020EFF305830A
:105DE00073B90A4B1B68012B0DD110B50024084B69
:105DF000DC77064B02221A60FFF7A4FA204610BD9A
:105E00006FF0050070474FF0FF30704738130020E7
:105E100000ED00E008B5EFF3058343B9FFF73EFD61
:105E200040B1022808D1FFF7D9FA002008BD6FF071
:105E30000500FBE70120F9E74FF0FF30F6E708B572
:105E4000EFF3058313B1FFF7D7FA08BDFFF7CEFADA
:105E5000FBE7F0B587B000240594EFF3058404BB9D
:105E6000F8B1002A34D0156893692BB11E46013B66
:105E7000372B02D9002015E01826536813F0010FC4
:105E80003FD1546984B14FEA940C93682BB1D76821
:105E90005B2F02D9176907B184B943B14FF0FF33C3
:105EA0000BB3059807B0F0BD4FF0800CEDE7D36859
:105EB000A3B91369ABB14FF0FF33F1E70293019738
:105EC00000960B4662462946FFF7CEF90590E8E7B3
:105ED0001546002318264FF0800CE1E74FF0FF3302
:105EE000DEE70023DCE705AB019300960B461FFAC3
:105EF0008CF22946FFF7F3F90128D2D0002305934D
:105F0000CFE70020CEE708B5EFF3058333B908B932
:105F1000002008BDFFF780FB0020FAE76FF00500C6
:105F2000F7E770B582B0EFF30583002B3AD1144642
:105F300000283BD000293BD06AB393684BB1D268AC
:105F40004F2A06D9226922B101FB00F56669AE42EB
:105F50001BD273B14FF0FF3363BB0022FEF76AFD23
:105F6000054605B304B1246821462846FEF7B8FF6C
:105F700019E0E3688BB9236913B14FF0FF33EBE706
:105F800063696BB14FF0FF33E6E700250095FEF73C
:105F900007FD0546E5E70023DEE74FF0FF33DBE7CB
:105FA0000023D9E70025284602B070BD0025FAE796
:105FB0000025F8E70025F6E710B582B01C46EFF3A0
:105FC0000583C3B118B329B33CBB0023019301AAD5
:105FD000FEF718FE012823D1019850B14FF0E023BD
:105FE0004FF08052C3F8042DBFF34F8FBFF36F8F74
:105FF000002002B010BDB0B1C1B100232246FEF7AF
:106000003DFD012815D0B4B16FF00100F1E76FF04C
:106010000300EEE76FF00300EBE76FF00300E8E743
:106020006FF00200E5E76FF00300E2E76FF00300B6
:10603000DFE70020DDE76FF00200DAE710B582B09D
:106040001C46EFF30583C3B110B321B334BB002367
:10605000019301AAFEF7ECFE012822D1019850B16C
:106060004FF0E0234FF08052C3F8042DBFF34F8F61
:10607000BFF36F8F002002B010BDA8B1B9B12246A6
:10608000FEF727FE012815D0B4B16FF00100F2E74A
:106090006FF00300EFE76FF00300ECE76FF0030031
:1060A000E9E76FF00200E6E76FF00300E3E76FF067
:1060B0000300E0E70020DEE76FF00200DBE700000E
:1060C000034B0360034B0B6080231360704700BFDA
:1060D000DC120020DC100020034B0360034B0B603C
:1060E0004FF480731360704780100020800C0020F4
:1060F000134A12F0070F1FD0D11D21F00701C1F57F
:106100003B63083313440A460E4802600021416095
:106110001344083B23F007030B48036059601960E0
:10612000991A51601360094B1960094B1960094BAA
:106130004FF000421A60704740F6B833E4E700BF02
:106140005C1300205413002050130020481300203B
:106150004C1300203C130020164B1A461B68834248
:10616000FBD3516802EB010C844509D0416800EB78
:10617000010C634509D00360904219D0106070474C
:106180004068014451601046F0E710B40A4C24689E
:10619000A3420BD05B681944416013681B6803601D
:1061A000904200D010605DF8044B70470460F7E740
:1061B000704700BF541300205013002038B5044628
:1061C000FFF70CF9384B1B68B3B1384B1B681C4206
:1061D00050D1002C50D004F1080214F0070F02D067
:1061E00022F007020832002A55D0314B1B68934237
:1061F00053D330490C6804E0FFF77AFFE5E7214606
:106200001C466368934202D22368002BF7D1264BC9
:106210001B68A34243D00D68083523680B60636890
:106220009B1A102B10D9A01810F0070F08D04FF0B0
:10623000500383F31188BFF36F8FBFF34F8FFEE7D7
:1062400043606260FFF788FF626819490B689B1A18
:106250000B60194909688B4201D217490B60134B37
:106260001B681343636000232360144A13680133DF
:10627000136002E0002500E00025FFF751F915F05A
:10628000070F0ED04FF0500383F31188BFF36F8FC9
:10629000BFF34F8FFEE70025EFE70025EDE7002570
:1062A000EBE7284638BD00BF501300203C13002008
:1062B0004C130020541300204813002044130020E6
:1062C000002834D038B50446A0F1080550F8043C45
:1062D000174A1268134208D14FF0500383F3118814
:1062E000BFF36F8FBFF34F8FFEE750F8081C41B12B
:1062F0004FF0500383F31188BFF36F8FBFF34F8FBD
:10630000FEE723EA020340F8043CFFF767F854F87D
:10631000041C084A13680B4413602846FFF71CFF4F
:10632000054A136801331360FFF7FAF838BD704768
:106330003C1300204C1300204013002082B00023A7
:1063400001930D4B1B68B3F1FF3F08D04FF0500392
:1063500083F31188BFF36F8FBFF34F8FFEE74FF0CA
:10636000500383F31188BFF36F8FBFF34F8F019BEF
:10637000002BFCD002B070470C00002008480068D9
:10638000006880F308884FF0000080F3148862B63C
:1063900061B6BFF34F8FBFF36F8F00DF00BF000008
:1063A00008ED00E0DFF80C00016841F470010160C5
:1063B0007047000088ED00E04FF0807340F8043C27
:1063C00021F0010140F8081C054B40F80C3C40F856
:1063D000202C6FF0020340F8243C4438704700BF83
:1063E0003D63020800000000000000000000000003
:1063F000074B19680868B0E8F04F80F30988BFF3CD
:106400006F8F4FF0000080F311887047AFF300806A
:10641000500B00204FF0500383F31188BFF36F8FB0
:10642000BFF34F8F0B4A136801331360012B00D069
:1064300070474FF0E023D3F8043D13F0FF0FF7D07F
:106440004FF0500383F31188BFF36F8FBFF34F8F6B
:10645000FEE700BF0C000020094B1B6843B94FF05A
:10646000500383F31188BFF36F8FBFF34F8FFEE7A5
:10647000013B034A13600BB983F31188704700BFD7
:106480000C000020000000000000000000000000E0
:10649000EFF30980BFF36F8F154B1A681EF0100FD2
:1064A00008BF20ED108A20E9F04F10602DE90900A7
:1064B0004FF0500080F31188BFF34F8FBFF36F8F01
:1064C000FFF7D0F84FF0000080F3118809BC19687D
:1064D0000868B0E8F04F1EF0100F08BFB0EC108A4B
:1064E00080F30988BFF36F8F704700BFAFF3008060
:1064F000500B002008B54FF0500383F31188BFF311
:106500006F8FBFF34F8FFEF77FFF28B14FF0E0236F
:106510004FF08052C3F8042D002383F3118808BD87
:106520004FF0E022002313619361054B1B6805497E
:10653000A1FB03139B09013B5361072313617047C0
:1065400008000020D34D62104FF0E023D3F8002D57
:106550003D4B9A421CD04FF0E023D3F8002D3B4B2B
:106560009A421ED030B583B0394B1A78D2B201921C
:10657000FF221A701B78DBB28DF803309DF80330D0
:1065800003F05003334A1370334B07221A601BE0A9
:106590004FF0500383F31188BFF36F8FBFF34F8F1A
:1065A000FEE74FF0500383F31188BFF36F8FBFF303
:1065B0004F8FFEE7284A1368013B13609DF80330B4
:1065C0005B00DBB28DF803309DF8033013F0800FD1
:1065D000F0D1214B1B68032B08D04FF0500383F3FD
:1065E0001188BFF36F8FBFF34F8FFEE71B021A4A6C
:1065F000136003F4E0631360019BDBB2144A137071
:106600004FF0E024D4F8203D43F47003C4F8203D5B
:10661000D4F8203D43F07043C4F8203DFFF780FFDD
:1066200000250E4B1D60FFF7BDFED4F8343F43F04C
:106630004043C4F8343FFFF7A1FEFFF713F8FFF71C
:106640007DFE284603B030BD71C20F4170C20F41BC
:1066500000E400E0181F0020141F00200C000020A0
:10666000EFF305830F2B0ED9114A9A5C114B1B785F
:106670009A4208D24FF0500383F31188BFF36F8F13
:10668000BFF34F8FFEE74FF0E023D3F80C3D03F448
:10669000E063094A1268934208D94FF0500383F32C
:1066A0001188BFF36F8FBFF34F8FFEE7704700BFB6
:1066B000F0E300E0181F0020141F002010B4303059
:1066C0000B0A9B0003F00C03C45801F01F014FF0AC
:1066D0001F0C0CFA01FC24EA0C0CC2F384628A4001
:1066E0004CEA0202C2505DF8044B704710B41430FB
:1066F0004B0E9B0003F00403C458C1F304514FF048
:10670000070C0CFA01FC24EA0C0C8A404CEA020249
:10671000C2505DF8044B704730B583B0002301933D
:10672000002800F0D0800446436D13B323689A68B4
:1067300012F0005F05D09A6822F0204222F03F025A
:106740009A602268936813F0805F1FD1936823F0EA
:10675000104323F03F0343F0805393605B4B1B686F
:106760009B095B4AA2FB03239B0901335B00019356
:1067700009E0FCF779F80023A36584F85030D5E7E9
:10678000019B013B0193019B002BF9D12268936887
:1067900013F0805F70D1636D43F010036365A36DE8
:1067A00043F00103A3650120936813F0040300D0B4
:1067B0000123616D11F0100F7ED1002B7CD1636D30
:1067C00023F4817343F002036365936813F0010FB0
:1067D0000BD1404B9B6813F0010F06D163683E4913
:1067E0008A6822F47C1213438B60627E636B43EAF7
:1067F0004233E2681343A268134394F8202043EA2B
:106800000243012A3AD0A26A22B102F47072E16A0C
:106810000A4313432168CD68304A2A401A43CA60AC
:106820002268936813F0080300D00123ABB9237EDC
:1068300094F83010490041EA8331D36823F480434F
:1068400023F002030B43D36094F83830012B1AD0A5
:106850002268136923F0010313612369012B22D0FD
:106860002268136B23F00F031363636D23F003039C
:1068700043F00103636524E0002095E7626A013A72
:1068800043EA4243BFE721680B696FF38A03E26B77
:10689000256C2A43656C2A43A56C2A43134343F0B5
:1068A00001030B61D9E721680B6B23F00F03E26949
:1068B000013A13430B63D8E7636D43F0100363653C
:1068C000012003B030BD0120FBE700BF080000201D
:1068D000632D3E05000004500003045007C0F0FF84
:1068E000F0B583B00023019390F85030012B00F0F5
:1068F000038204460D46012380F850300068836807
:1069000013F0040F09D0636D43F020036365012089
:10691000002384F8503003B0F0BD4968052907D83A
:10692000023903294ED8DFE801F0024F484A0C2112
:106930002A68FFF7C3FE2068836813F0040300D0C1
:106940000123826812F0080200D001220BB9002A4C
:106950003CD02268936813F0010F17D12B68E868C8
:10696000D2F8B010C3F3120621EA060100F0180CA9
:10697000A84820FA0CF00340C3F312030B43C2F8FB
:10698000B030EA68A44B9A4200F0A5802B68A34A75
:10699000134200F0AD81A24A926802F0E070A14972
:1069A0008B4200F05881A0498B4200F07A819F49C8
:1069B0008B4200F08A810020AAE71821B8E74FF443
:1069C0008071B5E70621B3E71221B1E7AA6829680B
:1069D000FFF78CFE69692268D368C3F3C1035B00CB
:1069E0009940286904280ED02E68603252F8207031
:1069F0008F4B3B4006F0F84631430B4343F00043D6
:106A000042F82030A5E7136E116EC1F384612B6844
:106A1000C3F3120080BBC3F38463994234D021686E
:106A20004B6E4A6EC2F384622B68C3F3120080BBC4
:106A3000C3F384639A4234D021688B6E8A6EC2F3AA
:106A400084622B68C3F3120080BBC3F384639A4251
:106A500034D02168CB6ECA6EC2F384622B68C3F354
:106A6000120080BBC3F384639A427FF472AFCB6E93
:106A700023F00043CB666CE793FAA3F313B1B3FAA8
:106A800083F3CAE72023C8E7136E23F0004313669D
:106A9000C5E793FAA3F313B1B3FA83F3CAE720234C
:106AA000C8E74B6E23F000434B66C5E793FAA3F3A8
:106AB00013B1B3FA83F3CAE72023C8E78B6E23F040
:106AC00000438B66C5E793FAA3F313B1B3FA83F3DC
:106AD000CAE72023C8E720682B68C3F312063EBB31
:106AE0009A0E013202F01F02092A8CBF00220122F5
:106AF000002A55D05EBB990E0131890601F0F8419C
:106B00008EBB4FEA936C0CF1010C0CF01F0C0122B0
:106B100002FA0CF21143AEBB9B0E013303F01F03CC
:106B200003EB43031B051943AA68FFF7DFFD2DE7BD
:106B300093FAA3F24AB1B2FA82F2013202F01F02D2
:106B4000092A8CBF00220122D2E72022F5E793FA1E
:106B5000A3F131B1B1FA81F10131890601F0F841B7
:106B6000CEE72021F8E793FAA3F24AB1B2FA82F213
:106B7000013202F01F024FF0010C0CFA02F2C9E7D9
:106B80002022F5E793FAA3F343B1B3FA83F3013379
:106B900003F01F0303EB43031B05C4E72023F6E7C1
:106BA000E6B9990E0131890601F0F84116BB4FEAAA
:106BB000936C0CF1010C0CF01F0C012202FA0CF288
:106BC0001143BEBB9B0E013303F01F0303EB4303D2
:106BD0001E3B1B0543F000731943A5E793FAA3F18D
:106BE00031B1B1FA81F10131890601F0F841DDE7F7
:106BF0002021F8E793FAA3F24AB1B2FA82F2013205
:106C000002F01F024FF0010C0CFA02F2D8E720222A
:106C1000F5E700BFFFFF070000007F40000008808D
:106C200000030450000052C7000084CB0100008024
:106C300000F0FF0393FAA3F35BB1B3FA83F30133DC
:106C400003F01F0303EB43031E3B1B0543F00073DC
:106C5000C2E72023F3E712F4000F7FF4A4AE22680A
:106C6000264B9A4201D0002052E640F4000324490A
:106C70008A6822F0E07213438B60224B1B689B09E9
:106C8000214AA2FB03239B09013303EB43039B002F
:106C90000193019B1BB1019B013B0193F9E700208C
:106CA00036E612F0807F7FF482AE2268134B9A4260
:106CB00001D000202CE640F0807311498A6822F050
:106CC000E07213438B60002022E612F4800F11D192
:106CD00022680A4B9A4201D0002019E640F4800352
:106CE00007498A6822F0E07213438B6000200FE6A8
:106CF00000200DE600200BE602200CE60000045008
:106D00000003045008000020632D3E0538B50446FA
:106D10000268936813F0020300D00123916811F018
:106D2000010F39D0002B39D1936803F00D03012BEB
:106D300009D0636D43F010036365A36D43F0010355
:106D4000A365012029E0936823F0004323F03F036B
:106D500043F002039360236803221A60FCF7C2FB2E
:106D6000054623689B6813F0010F13D0FCF7BAFBAC
:106D7000401B0228F5D923689B6813F0010FF0D05F
:106D8000636D43F010036365A36D43F00103A365D6
:106D9000012002E0002000E0002038BD0020FCE7D8
:106DA00030B583B00023019390F85030012B41D0CF
:106DB00004460D46012380F85030FFF7A7FF80BB43
:106DC000636D23F4885323F0020343F002036365E9
:106DD0002268936823F0404323F03F0305F0804589
:106DE0002B4343F00043936023689B68002B06DB32
:106DF000636D23F0030343F00103636515E0019B1A
:106E000001330193019BB3F5912FEDD3636D23F013
:106E1000120343F010036365002384F8503001200F
:106E200006E0636D43F010036365002384F850307F
:106E300003B030BD0220FBE7DFF834D0FDF76AFC79
:106E40000C480D490D4A002302E0D458C4500433C5
:106E5000C4188C42F9D30A4A0A4C002301E013609B
:106E60000432A242FBD300F019F8FBF70FFBFEE758
:106E700000C0002000000020100000202070020848
:106E8000100000201C1F0020FEE70244034693422E
:106E900000D1704703F8011BF9E7000070B50D4BF6
:106EA0000D4D5B1B9C100026A64209D100F028F86E
:106EB0000A4D0B4B5B1B9C100026A64205D170BDF2
:106EC00055F8043B98470136EEE755F8043B9847E0
:106ED0000136F2E710700208107002081070020804
:106EE000147002080A44914200F1FF3300D1704748
:106EF00010B511F8014B03F8014F9142F9D110BDC3
:106F0000F8B500BFF8BC08BC9E467047F8B500BF96
:086F1000F8BC08BC9E46704766
:106F180063616E5F6D657373616765730000000080
:106F28004C45445F426C696E6B00000064656661A5
:106F3800756C745461736B0049444C450000000043
:106F4800546D725100000000546D72205376630036
:106F5800186F0208000000002C0000205C000000F0
:106F68008800002000020000180000000000000057
:106F780000000000286F0208000000008C020020BA
:106F88005C000000E8020020000200001800000079
:106F98000000000000000000346F0208000000003C
:106FA80000000000000000000000000000020000D7
:106FB800180000000000000000000000A08601008A
:106FC800400D0300801A060000350C0040420F00F7
:106FD80080841E0000093D0000127A000024F4009D
:106FE80000366E010048E801006CDC020000000079
:106FF8000102030400000000000000000102030475
:08700800060708090000000062
:08701000B52102080000000098
:087018009121020800000000B4
:10702000010000001000000000093D00AAAAAAAA61
:0400000508026E3946
:00000001FF
