:020000040802F0
:1020000000C000202D540208C1230208C323020887
:10201000C5230208C7230208C923020800000000E4
:1020200000000000000000000000000061510208F4
:10203000CB2302080000000001520208EF4C020806
:102040007D5402087D5402087D5402087D54020824
:102050007D5402087D5402087D5402087D54020814
:102060007D5402087D5402087D5402087D54020804
:102070007D5402087D5402087D5402087D540208F4
:102080007D5402087D5402087D5402087D540208E4
:102090007D5402087D5402087D5402087D540208D4
:1020A0007D5402087D5402087D5402087D540208C4
:1020B0007D54020800000000000000007D5402086A
:1020C0007D54020800000000000000007D5402085A
:1020D000000000007D5402087D540208000000004A
:1020E0007D5402087D54020800000000000000003A
:1020F00000000000000000000000000000000000E0
:102100000000000000000000000000007D540208F4
:102110000000000000000000CD2302087D540208EA
:102120007D5402087D5402087D5402087D54020843
:102130007D540208000000000000000000000000C4
:102140007D5402087D5402087D5402087D54020823
:102150007D5402087D5402087D5402087D54020813
:102160007D5402087D5402087D54020800000000DE
:102170007D5402087D5402080000000000000000A9
:102180007D5402087D5402087D54020800000000BE
:1021900010B5054C237833B9044B13B10448AFF3A1
:1021A00000800123237010BD1000002000000000FB
:1021B000F454020808B5034B1BB103490348AFF3BD
:1021C000008008BD0000000014000020F454020844
:1021D000F0B589B003AD00240394049405940694EB
:1021E00007941B4BDA6C42F00102DA64DA6C02F0FD
:1021F00001020192019ADA6C42F00202DA64DB6CAD
:1022000003F002030293029B124E2246082130463D
:1022100001F072F94FF44673039304940127059774
:1022200029464FF0904001F08FF803230393049464
:1022300005972946304601F087F808230393049751
:10224000059406942946304601F07EF809B0F0BDA9
:10225000001002400004004808B5012002F0DCFD37
:10226000FBE708B5012002F0D7FDFBE708B50268DF
:10227000034B9A4200D008BD00F088FBFBE700BF8B
:102280000010004072B6FEE708B50D480D4B036024
:102290000A23436000238360C3604FF4402202613D
:1022A0004FF480124261037643768376C3760377D8
:1022B000437700F0B6FA00B908BDFFF7E3FF00BFAF
:1022C000B40200200064004008B50848084B0360D1
:1022D000002303714371436183610123036201F0B1
:1022E000C9F900B908BDFFF7CDFF00BF900200207B
:1022F0000030024000B597B04422002105A803F049
:10230000BEF80023009301930293039304934FF4C8
:10231000007001F0FFF818BB022305934FF48072A0
:102320000892102209920F93109311931422129283
:10233000072213921493159305A800F0D5FB88B9D2
:102340000F23009303230193002302930393049329
:102350000421684600F0FEFE30B917B05DF804FBBA
:10236000FFF790FFFFF78EFFFFF78CFF08B500F037
:10237000FEFAFFF7BFFFFFF72BFFFFF785FFFFF721
:10238000A3FF02F0C1FC084A0021084802F0EAFC61
:10239000074B1860074A0021074802F0E3FC074B8F
:1023A000186002F0C3FCFEE76455020859220208D7
:1023B0008C02002040550208632202088802002097
:1023C000FEE7FEE7FEE7FEE7FEE7704708B50248D6
:1023D00000F0FAF808BD00BFDC02002000B583B0B1
:1023E0000D4B1A6E42F001021A661A6E02F00102DB
:1023F0000092009A9A6D42F080529A659B6D03F0AC
:1024000080530193019B00220F216FF0010001F026
:102410001DF903B05DF804FB0010024000B589B05F
:102420000023039304930593069307930268144BC8
:102430009A4202D009B05DF804FB03F5D6339A6DD9
:1024400042F000729A659A6D02F000720192019A50
:10245000DA6C42F00102DA64DB6C03F001030293F0
:10246000029B4FF4C0530393022304930323069368
:102470000923079303A94FF0904000F065FFD9E7C7
:10248000006400400268094B9A4200D0704782B055
:10249000A3F500539A6C42F480529A649B6C03F447
:1024A00080530193019B02B0704700BF003002408F
:1024B00030B589B00446214B9A6D42F010029A65FE
:1024C0009B6D03F010030193019B02A903A800F088
:1024D0001DFF069BCBB900F007FF0346184AA2FB7D
:1024E00003239B0C013B1748174A026040F2E73276
:1024F000C2604360002303618360836100F05EF982
:10250000054630B1284609B030BD00F0EDFE43006D
:10251000E4E70C4800F01EF805460028F2D136200A
:1025200001F0A4F80F2C01D90125EBE70022214688
:10253000362001F08BF8054B1C60E3E700100240E9
:1025400083DE1B43DC02002000100040040000205A
:102550007047000090F83D30012B26D1022380F80F
:102560003D300268D36843F00103D3600368124A28
:1025700093420CD0B3F1804F09D002F5A0529342A0
:1025800005D01A6842F001021A600020704799686D
:102590000A4A0A40062A0AD0B2F5803F09D01A68D2
:1025A00042F001021A6000207047012070470020AD
:1025B00070470020704700BF002C01400700010059
:1025C000704770477047704770B504460368DE680F
:1025D0001D6915F0020F10D016F0020F0DD06FF02C
:1025E00002021A610123037703689B6913F0030F4A
:1025F00064D0FFF7E6FF0023237715F0040F12D015
:1026000016F0040F0FD023686FF004021A61022342
:10261000237723689B6913F4407F55D02046FFF74A
:10262000D0FF0023237715F0080F12D016F0080F03
:102630000FD023686FF008021A6104232377236800
:10264000DB6913F0030F46D02046FFF7BAFF0023E3
:10265000237715F0100F12D016F0100F0FD023684B
:102660006FF010021A61082323772368DB6913F4E3
:10267000407F37D02046FFF7A4FF0023237715F0D3
:10268000010F02D016F0010F33D115F4025F02D012
:1026900016F0800F35D115F4807F02D016F0800F30
:1026A00037D115F0400F02D016F0400F39D115F098
:1026B000200F02D016F0200F3BD170BDFFF780FF36
:1026C0002046FFF77FFF96E72046FFF779FF204679
:1026D000FFF778FFA5E72046FFF772FF2046FFF7D8
:1026E00071FFB4E72046FFF76BFF2046FFF76AFF54
:1026F000C3E723686FF001021A612046FFF7B6FDB9
:10270000C3E723686FF402521A61204600F087F88D
:10271000C1E723686FF480721A61204600F080F8E8
:10272000BFE723686FF040021A612046FFF74BFFB6
:10273000BDE723686FF020021A61204600F06EF8B2
:10274000BBE7000003681C4A904202D0B0F1804F02
:1027500003D123F070034A681343174A90420AD00A
:10276000B0F1804F07D002F5A052904203D002F59D
:102770008062904203D123F44073CA68134323F06C
:1027800080034A6913438A68C2620A6882620A4AFD
:10279000904207D002F5A052904203D002F5806229
:1027A000904201D10A690263026842F004020260A9
:1027B0000122426103607047002C014060B310B5F4
:1027C000044690F83D3013B3022384F83D3021468F
:1027D00051F8040BFFF7B6FF012384F8483084F862
:1027E0003E3084F83F3084F8403084F8413084F83B
:1027F000423084F8433084F8443084F8453084F81B
:10280000463084F8473084F83D30002010BD80F811
:102810003C30FFF79DFED7E70120704770477047B7
:102820007047002800F0A18038B5044690F82030A9
:10283000D3B12268136843F00103136000F0B2F8CB
:10284000054623685A6812F0010F10D100F0AAF86B
:10285000401B0A28F5D9636A43F4003363620523F9
:1028600084F82030012038BDFFF7D8FDE1E71A6871
:1028700022F002021A6000F095F8054623685A68B3
:1028800012F0020F0DD000F08DF8401B0A28F5D988
:10289000636A43F400336362052384F82030012027
:1028A000E1E7227E012A3DD01A6822F080021A60F8
:1028B000637E012B3BD02268136823F04003136032
:1028C000A37E012B39D02268136823F02003136004
:1028D000E37E012B37D02268136843F010031360A6
:1028E000237F012B35D02268136823F0080313607F
:1028F000637F012B33D02268136823F00403136035
:10290000A368E26813432269134362691343626850
:10291000013A21681343CB6100206062012384F8EF
:102920002030A0E71A6842F080021A60C0E72268EF
:10293000136843F040031360C2E72268136843F052
:1029400020031360C4E72268136823F010031360A8
:10295000C6E72268136843F008031360C8E72268DB
:10296000136843F004031360CAE70120704710B5F1
:10297000032000F059FE0F20FFF79AFD10B101244B
:10298000204610BD0446FFF729FDF9E7034B1B78ED
:10299000034A11680B441360704700BF0000002019
:1029A00028030020014B1868704700BF280300204F
:1029B00030B583B00446204B9B6D13F0805F0BD085
:1029C00000F0A0FDB0F5007F17D0802C1FD82DD0CF
:1029D000702C2DD000211BE0174DAB6D43F08053C0
:1029E000AB65AB6D03F080530193019B00F08AFD52
:1029F000AB6D23F08053AB65E4E7802C03D9A02CAA
:102A000003D9022104E0002102E0012100E00321BA
:102A10000A4A136823F007030B431360136803F09B
:102A200007038B4206D1002003B030BD0221EFE73F
:102A30000121EDE70120F7E70010024000200240ED
:102A4000254A9368D26802F0030213F00C0309D000
:102A50000C2B05D0042B3BD0082B3BD000200FE0E3
:102A6000012AF7D11C4A126812F0080F0CD11A4A39
:102A7000D2F89420C2F30322184951F8220013B16E
:102A80000C2B06D000207047134A1268C2F30312C1
:102A9000F2E7114BDB6803F00303022B16D0032B84
:102AA00000D10F480C49CA68C2F302120132CB6848
:102AB000C3F3062300FB03F3B3FBF2F3C868C0F3D0
:102AC000416001304000B3FBF0F070470548E9E792
:102AD00004487047024870470010024088550208B9
:102AE00000127A000024F400002800F01C83F0B5E6
:102AF00083B00446964B9D6805F00C05DE6806F031
:102B00000306036813F0100F5AD0E5B10C2D18D04E
:102B1000A369002B00F0BB808D4A136843F00103CA
:102B20001360FFF73FFF0746894B1B6813F0020F46
:102B300040F09A80FFF736FFC01B0228F4D903202B
:102B4000FCE2012EE4D1824B1B6813F0020F03D08C
:102B5000A369002B00F0E982206A7D4B1B6813F00B
:102B6000080F5BD07A4B1B6803F0F00398425CD8E7
:102B7000774B1A6842F008021A601A6822F0F002D5
:102B8000216A0A431A605A6822F47F42E16942EAE4
:102B900001225A60002D60D0FFF752FF6C4B9B68FA
:102BA000C3F303136B4AD35C03F01F03D8406A4B93
:102BB00018606A4B1868FFF77BFC002840F0BE8263
:102BC000236813F0010F00F08180082D75D00C2DC3
:102BD00071D06368B3F5803F00F09780B3F5A02F04
:102BE00000F099805A4B1A6822F480321A601A68F1
:102BF00022F480221A606368002B00F09980FFF7AE
:102C0000D1FE0746524B1B6813F4003F5ED1FFF71D
:102C1000C9FEC01B6428F5D903208FE24C4BD3F8C2
:102C200094301B0903F0F003A0E7FFF7C1FE002872
:102C300040F07D82464B1A6842F008021A601A681A
:102C400022F0F002216A0A431A605A6822F47F4295
:102C5000E16942EA01225A609EE7206AFFF7A8FE76
:102C6000002899D0012069E2394B1A6842F0080225
:102C70001A601A6822F0F002216A0A431A605A6840
:102C800022F47F42E16942EA01225A6098E7304A21
:102C9000136823F001031360FFF784FE07462C4BF3
:102CA0001B6813F0020F8BD0FFF77CFEC01B0228BD
:102CB000F5D9032042E2032E8BD1254B1B6813F478
:102CC000003F03D06368002B00F03382236813F0C9
:102CD000020F58D0042D45D00C2D41D0E368002BB5
:102CE00077D01B4A136843F480731360FFF75AFED2
:102CF0000646174B1B6813F4806F61D1FFF752FE35
:102D0000801B0228F5D9032018E2114A136843F406
:102D1000803313606FE703F18043A3F53C331A68F7
:102D200042F480221A601A6842F480321A6062E724
:102D3000FFF738FE0746064B1B6813F4003FC5D06B
:102D4000FFF730FEC01B6428F5D90320F6E100BF71
:102D500000100240C05502080800002004000020B6
:102D6000022EBBD1A44B1B6813F4806F03D0E36821
:102D7000002B00F0E081A04A536823F0F85321694A
:102D800043EA01635360236813F0080F4CD0636972
:102D90009BB3994AD2F8943043F00103C2F89430BF
:102DA000FFF700FE0646944BD3F8943013F0020F61
:102DB0003AD1FFF7F7FD801B0228F4D90320BDE1CB
:102DC0008D4A536823F0F853216943EA0163536045
:102DD000D9E7894A136823F480731360FFF7E2FD93
:102DE0000646854B1B6813F4806FCCD0FFF7DAFDE5
:102DF000801B0228F5D90320A0E17F4AD2F8943045
:102E000023F00103C2F89430FFF7CCFD06467A4B5D
:102E1000D3F8943013F0020F06D0FFF7C3FD801BE8
:102E20000228F4D9032089E1236813F0040F7AD033
:102E3000714B9B6D13F0805F36D16F4B9A6D42F0F2
:102E400080529A659B6D03F080530193019B01268C
:102E50006A4B1B6813F4807F28D0A368012B39D0FC
:102E6000052B3FD0644BD3F8902022F00102C3F829
:102E70009020D3F8902022F00402C3F89020A36899
:102E8000002B3DD0FFF78EFD07465B4BD3F890300B
:102E900013F0020F46D1FFF785FDC01B41F28833C6
:102EA0009842F2D9032049E10026D1E7534A13683A
:102EB00043F480731360FFF775FD07464F4B1B68A3
:102EC00013F4807FC9D1FFF76DFDC01B0228F5D92F
:102ED000032033E1484AD2F8903043F00103C2F8AE
:102EE0009030CCE7444BD3F8902042F00402C3F872
:102EF0009020D3F8902042F00102C3F89020BEE762
:102F0000FFF750FD07463C4BD3F8903013F0020F0B
:102F100008D0FFF747FDC01B41F288339842F2D931
:102F200003200BE1E6B9236813F0200F35D0636A64
:102F3000E3B1314AD2F8983043F00103C2F8983037
:102F4000FFF730FD06462C4BD3F8983013F0020FF4
:102F500023D1FFF727FD801B0228F4D90320EDE0E1
:102F6000254A936D23F080539365DCE7224AD2F81B
:102F7000983023F00103C2F89830FFF713FD06469E
:102F80001D4BD3F8983013F0020F06D0FFF70AFD5F
:102F9000801B0228F4D90320D0E0A36A002B00F0A4
:102FA000CC80022B17D00C2D00F0CC80124A136875
:102FB00023F080731360FFF7F5FC04460E4B1B688B
:102FC00013F0007F00F0A880FFF7ECFC001B022844
:102FD000F4D90320B2E0084BDB6803F00301E26A96
:102FE00091420DD00C2D00F0AB80034B1B6813F009
:102FF000806F2FD00120A1E000100240007000403F
:1030000003F07002216B0139B2EB011FEAD103F426
:10301000FE42616BB2EB012FE4D103F07842A16B69
:10302000B2EBC16FDED103F4C001E26B5208013A8A
:10303000B1EB425FD6D103F0C063226C5208013A73
:10304000B3EB426FCED1404B1B6813F0007F49D0E9
:10305000002073E03C4A136823F080731360FFF78D
:10306000A1FC0546384B1B6813F0007F06D0FFF724
:1030700099FC401B0228F5D903205FE0324AD3684F
:1030800032491940E36A206B013843EA0013606B50
:1030900043EA0023E06B4008013843EA4053206CC8
:1030A0004008013843EA4063A06B43EAC063194318
:1030B000D160136843F080731360D36843F080736A
:1030C000D360FFF76FFC04461F4B1B6813F0007FB3
:1030D00006D1FFF767FC001B0228F5D903202DE07D
:1030E00000202BE0184B1A6842F080721A60DA68F0
:1030F00042F08072DA60FFF755FC0446124B1B6801
:1031000013F0007F06D1FFF74DFC031B022BF5D90E
:10311000032013E0002011E00B4AD1680C4B0B4058
:10312000D36000200AE001207047012006E0012062
:1031300004E0012002E0012000E0002003B0F0BD27
:103140000120FBE70120F9E7001002408C809D017F
:10315000FCFFEEFE002800F0AF8070B50D4604467F
:10316000594B1B6803F007038B420BD2564A136876
:1031700023F007030B431360136803F007038B422C
:1031800040F09C80236813F0020F0CD0A2684F4BD4
:103190009B6803F0F0039A4205D94C498B6823F0F1
:1031A000F0031A438A60236813F0010F39D0636873
:1031B000032B09D0022B26D063BB444A126812F0BD
:1031C000020F06D1012076E0404A126812F0007F1B
:1031D00076D03E498A6822F0030213438B60FFF7E2
:1031E000E1FB0646394B9B6803F00C036268B3EBC6
:1031F000820F16D0FFF7D6FB801B41F2883398422E
:10320000F0D9032057E0314A126812F4003FE0D1B0
:10321000012050E02D4A126812F4806FD9D10120AC
:1032200049E0236813F0020F0CD0A268274B9B687B
:1032300003F0F0039A4205D224498B6823F0F0038F
:103240001A438A60204B1B6803F00703AB420AD97C
:103250001D4A136823F007032B431360136803F020
:103260000703AB422ED1236813F0040F06D0174A90
:10327000936823F4E063E1680B439360236813F0E1
:10328000080F07D0114A936823F46053216943EA79
:10329000C1039360FFF7D4FB0C4B9B68C3F303138C
:1032A0000B4AD35C03F01F03D8400A4B18600A4B4B
:1032B0001868FFF7FDF870BD012070470120FAE79C
:1032C0000120F8E70120F6E700200240001002404C
:1032D000C05502080800002004000020014B1868B7
:1032E000704700BF0800002008B5FFF7F7FF054B47
:1032F0009B68C3F30223044AD35C03F01F03D84046
:1033000008BD00BF00100240B85502080F2303603B
:103310000B4B9A6802F0030242609A6802F0F002D6
:1033200082609A6802F4E062C2609B68DB0803F482
:10333000E0630361034B1B6803F007030B607047F6
:103340000010024000200240F0B583B0002362E08C
:1033500085685E000324B44025EA0405CC68B440C7
:103360002C438460456825EA0C054C68C4F30014BE
:103370009C402C4344605FE0DD08083550F8254050
:1033800003F0070C4FEA8C0C4FF00F0E0EFA0CFEF8
:1033900024EA0E0E0C6904FA0CF444EA0E0440F818
:1033A000254060E0022400E0002404FA0EF42C43DF
:1033B0000CF1020C4C4D45F82C404C4CA568D44304
:1033C00025EA02064F6817F4801F01D042EA05067D
:1033D000464DAE60ED6804EA05064F6817F4001F1D
:1033E00001D042EA0506414DEE606D6804EA05062B
:1033F0004F6817F4003F01D042EA05063B4D6E606E
:103400002D682C404E6816F4803F01D042EA050436
:10341000364A146001330A6832FA03F462D04FF07E
:10342000010C0CFA03FC1CEA0202F3D04C6804F015
:103430000304013C012C8BD94C6804F00304032CD9
:103440000CD0C4685D004FF0030C0CFA05FC24EAB4
:103450000C0C8C68AC4044EA0C04C4604C6804F06A
:103460000304022C88D004684FEA430E4FF0030C8B
:103470000CFA0EFC24EA0C0C4C6804F0030404FA69
:103480000EF444EA0C0404604C6814F4403FC1D0CC
:10349000174C256E45F001052566246E04F00104E5
:1034A0000194019C4FEA930C0CF102050E4C54F868
:1034B000255003F0030E4FEA8E0E0F2404FA0EF48B
:1034C00025EA0405B0F1904F3FF46EAF094CA042DD
:1034D00006D004F58064A0423FF464AF072464E79B
:1034E000012462E703B0F0BD000001400004014088
:1034F00000100240000400480AB1816170478162F7
:1035000070470000024B186800F4C060704700BFAD
:1035100000700040B0F5007F0FD01F4B1B6803F414
:10352000C063B3F5806F34D01B4A136823F4C063C3
:1035300043F48063136000207047174B1B6803F44B
:10354000C063B3F5007F20D0134A136823F4C0632F
:1035500043F400731360114B1B68322202FB03F328
:103560000F4AA2FB03239B0C013300E0013B0A4AF4
:10357000526912F4806F01D0002BF7D1064B5B69C2
:1035800013F4806F03D100207047002070470320A0
:1035900070470020704700BF007000400800002006
:1035A00083DE1B43002807DB00F01F0240090123D4
:1035B0009340024A42F82030704700BF00E100E02B
:1035C000002808DB0901C9B200F1604000F5614044
:1035D00080F80013704700F00F000901C9B2014BD9
:1035E0001954704714ED00E000B500F00700C0F179
:1035F000070CBCF1040F28BF4FF0040C031D062B71
:103600000FD9C31E4FF0FF3E0EFA0CF021EA000165
:1036100099400EFA03FE22EA0E0241EA02005DF82A
:1036200004FB0023EEE70000074AD36823F4E063BD
:103630001B041B0C000200F4E060034343F0BF6373
:1036400043F40033D360704700ED00E010B504464A
:10365000054BD868C0F30220FFF7C6FF014620469D
:10366000FFF7AEFF10BD00BF00ED00E008B5FFF7AB
:1036700099FF08BD002838D010B50446437F1BB31E
:103680000223637723791BBB2368194A5A61226896
:10369000936823F018039360637913BB23684FF09A
:1036A000FF321A612268936823F0600361690B435B
:1036B00093602268936823F08003A1690B439360B1
:1036C00001236377002010BD0377FEF7DBFED7E709
:1036D000E268A168204600F00DF80028DCD0012047
:1036E000F1E7236822691A61DCE70120704700BF17
:1036F000B71DC10411F0010F30D010B41F231C46B8
:10370000013B34B103F01F0C21FA0CFC1CF0010F3B
:10371000F5D0182A24D8DFE802F00F23232323232F
:1037200023231D2323232323232319232323232379
:1037300023230D00062B17D80368596101688B6895
:1037400023F0180313438B6000200AE0072BF3D902
:10375000012006E00F2BEFD9012002E00120704785
:1037600001205DF8044B70470120FAE7044B054A3D
:103770009A60D3F8882042F47002C3F8882070471A
:1037800000ED00E00080000800F1080343604FF006
:10379000FF328260C360036100230360704700232F
:1037A0000361704743684B609A688A605160996012
:1037B0000861036801330360704730B40D68B5F1E8
:1037C000FF3F11D000F108031C465B681A68AA424B
:1037D000FAD963684B6099608C6061600861036826
:1037E0000133036030BC70470469F2E70369416844
:1037F00082688A60416851605A68824206D000221D
:1038000002611A68013A1A601868704782685A6043
:10381000F5E710B5044601F0B5FCA26BE36B9A42E4
:1038200004D0002401F0D0FC204610BD0124F9E7AB
:1038300010B5044601F0A6FCA36B23B9012401F0E6
:10384000C3FC204610BD0024F9E770B504461546B8
:10385000866B026C5AB903681BB100200136A6635F
:1038600070BD806800F0D2FF0023A360F6E76DB959
:10387000406801F031FE6368226C13446360A26803
:10388000934219D3236863602846E7E7C06801F0D4
:1038900023FEE368226C51429B1AE3602268934244
:1038A00002D2A3680B44E360022D01D00020D5E7CB
:1038B00026B1013E0020D1E72846CFE70020CDE722
:1038C0000346026C6AB110B50846D9681144D96044
:1038D0009C68A14201D31968D960D96801F0FCFD48
:1038E00010BD704738B5054601F04CFC95F84540D1
:1038F00064B201E0013C64B2002C0ADD6B6A43B1A2
:1039000005F1240000F0D6FE0028F3D000F068FF97
:10391000F0E7FF2385F8453001F056FC01F032FC5A
:1039200095F8444064B201E0013C64B2002C0ADD29
:103930002B6943B105F1100000F0BCFE0028F3D064
:1039400000F04EFFF0E7FF2385F8443001F03CFC27
:1039500038BD38B5E0B10D46044601F013FC2368CC
:10396000E26B216C01FB0230A0600020A063636069
:10397000013A02FB0133E360FF2384F8443084F80A
:103980004530FDB9236963B901F01EFC012038BD43
:103990004FF0500383F31188BFF36F8FBFF34F8F46
:1039A000FEE704F1100000F085FE0028ECD04FF097
:1039B000E0234FF08052C3F8042DBFF34F8FBFF3C5
:1039C0006F8FE1E704F11000FFF7DEFE04F1240041
:1039D000FFF7DAFED8E738B51D46049C0B4649B917
:1039E0002460E063236401212046FFF7B2FF84F8DE
:1039F0004C5038BD2260F4E740B94FF0500383F3D8
:103A00001188BFF36F8FBFF34F8FFEE710B584B0FF
:103A10001C46844653B192B189B94FF0500383F3E9
:103A20001188BFF36F8FBFF34F8FFEE74FF0500346
:103A300083F31188BFF36F8FBFF34F8FFEE76AB137
:103A400050230393039B502B13D04FF0500383F369
:103A50001188BFF36F8FBFF34F8FFEE70029EFD0C0
:103A60004FF0500383F31188BFF36F8FBFF34F8F75
:103A7000FEE7039B012384F8463000949DF818303C
:103A80006046FFF7A8FF204604B010BDF0B585B032
:103A9000019288B10F461D460446B1B1022D20D1D6
:103AA000E36B012B1DD04FF0500383F31188BFF35C
:103AB0006F8FBFF34F8FFEE74FF0500383F31188F2
:103AC000BFF36F8FBFF34F8FFEE7036C002BE5D082
:103AD0004FF0500383F31188BFF36F8FBFF34F8F05
:103AE000FEE700F083FE064658B9019B002B48D044
:103AF0004FF0500383F31188BFF36F8FBFF34F8FE5
:103B0000FEE700263DE02A4639462046FFF79DFEA7
:103B1000636A7BB948B14FF0E0234FF08052C3F89D
:103B2000042DBFF34F8FBFF36F8F01F04DFB0120CA
:103B300005B0F0BD04F1240000F0BCFD0028F4D075
:103B40004FF0E0234FF08052C3F8042DBFF34F8FA6
:103B5000BFF36F8FE9E701F037FB0020E8E702A829
:103B600000F0EEFD012619E0002384F8443021E046
:103B7000002384F8453023E02046FFF7B3FE00F031
:103B800077FC01F0FFFAA26BE36B9A42BBD3022DE4
:103B9000B9D0019B002BDED0002EE0D001F014FB49
:103BA00000F0CCFB01F0EEFA94F8442052B2B2F1EE
:103BB000FF3FD9D094F8452052B2B2F1FF3FD7D0A1
:103BC00001F002FB01A902A800F0C6FDD8B9204609
:103BD000FFF71FFE0028CFD0019904F1100000F07C
:103BE00035FD2046FFF77EFE00F042FC0028C8D1DC
:103BF0004FF0E0234FF08052C3F8042DBFF34F8FF6
:103C0000BFF36F8FBDE72046FFF76CFE00F030FC7E
:103C100000208DE72DE9F84390B10F4616461C466B
:103C20000546B1B1022C20D1EB6B012B1DD04FF01A
:103C3000500383F31188BFF36F8FBFF34F8FFEE7FD
:103C40004FF0500383F31188BFF36F8FBFF34F8F93
:103C5000FEE7036C002BE5D04FF0500383F311888F
:103C6000BFF36F8FBFF34F8FFEE701F0B1FBEFF3B0
:103C700011884FF0500383F31188BFF36F8FBFF3A8
:103C80004F8FAA6BEB6B9A4206D3022C04D0002014
:103C900088F31188BDE8F88395F845904FFA89F9C3
:103CA000AB6B224639462846FFF7CFFDB9F1FF3FFF
:103CB00006D009F101035BB285F845300120E7E742
:103CC0006B6A0BB90120E3E705F1240000F0F2FC78
:103CD00018B126B101203060DAE70120D8E70120D1
:103CE000D6E7F0B585B0019290B10F460446C1B158
:103CF00000F07CFD064600BB019B002B5ED04FF020
:103D0000500383F31188BFF36F8FBFF34F8FFEE72C
:103D10004FF0500383F31188BFF36F8FBFF34F8FC2
:103D2000FEE7036C002BE3D04FF0500383F31188C0
:103D3000BFF36F8FBFF34F8FFEE700263EE039469B
:103D40002046FFF7BDFD013DA563236923B901F0BE
:103D50003BFA012005B0F0BD04F1100000F0AAFC10
:103D60000028F4D04FF0E0234FF08052C3F8042D28
:103D7000BFF34F8FBFF36F8FE9E701F025FA002003
:103D8000E8E702A800F0DCFC012621E0002384F82B
:103D9000443029E0002384F845302BE02046FFF72B
:103DA000A1FD00F065FB09E02046FFF79BFD00F058
:103DB0005FFB2046FFF73CFD00283FD101F0E2F910
:103DC000A56B002DBBD1019B002BD6D0002ED8D0E7
:103DD00001F0FAF900F0B2FA01F0D4F994F84430A5
:103DE0005BB2B3F1FF3FD1D094F845305BB2B3F191
:103DF000FF3FCFD001F0E8F901A902A800F0ACFC28
:103E00000028D1D12046FFF713FD0028C6D0019924
:103E100004F1240000F01AFC2046FFF763FD00F0D7
:103E200027FB0028CAD14FF0E0234FF08052C3F89F
:103E3000042DBFF34F8FBFF36F8FBFE7002089E7DB
:103E40000023072B0CD8074A52F833200AB101335C
:103E5000F7E7044A42F8331002EBC30250607047A0
:103E6000704700BF2C03002070B504460D4616466F
:103E700001F088F994F844305BB2B3F1FF3F0DD004
:103E800094F845305BB2B3F1FF3F0BD001F09CF9E1
:103E9000A36B5BB12046FFF725FD70BD002384F8BE
:103EA0004430EDE7002384F84530EFE732462946F9
:103EB00004F1240000F0E2FBECE70000084B1B6873
:103EC0001B6823B9074B4FF0FF321A607047044B51
:103ED0001B68DB68DB685A68024B1A60704700BFDA
:103EE000DC030020740300202DE9F04780460D46D6
:103EF00017469946089EDDF824A00A9C9200A52149
:103F0000206B01F0BCFA236B07F18042013A03EB0E
:103F1000820727F00707A5B34FF0000CBCF10F0F85
:103F200009D815F80C3004EB0C0282F8343013B1C8
:103F30000CF1010CF2E7002384F84330372E00D94E
:103F40003726E662E66400252565201DFFF727FC7D
:103F500004F11800FFF723FC2461C6F13806A661BE
:103F60006462656584F858504A464146384601F017
:103F7000DDF82060BAF1000F01D0CAF80040BDE8BA
:103F8000F087002384F83430D8E7000038B50024E7
:103F900007E004EB840293000E481844FFF7F4FB9B
:103FA0000134372CF5D90C4D2846FFF7EDFB0B4CAF
:103FB0002046FFF7E9FB0A48FFF7E6FB0948FFF751
:103FC000E3FB0948FFF7E0FB084B1D60084B1C6052
:103FD00038BD00BF08040020F4030020E0030020E7
:103FE000C4030020B003002098030020DC0300205D
:103FF000D803002010B5044601F0C4F8224A136823
:1040000001331360214B1B685BB1214B1B686BB9FB
:104010001E4B1B68DA6AE36A9A4207D81B4B1C6086
:1040200004E01A4B1C601368012B29D0194A13684D
:10403000013313606364E06A174B1B68984201D92F
:10404000154B186000EB8000211D144B03EB800022
:10405000FFF7A8FB01F0B8F80D4B1B687BB10B4BC9
:104060001B68DA6AE36A9A4209D24FF0E0234FF004
:104070008052C3F8042DBFF34F8FBFF36F8F10BD75
:10408000FFF784FFD2E700BF9403002068080020F8
:1040900088030020780300208C03002008040020FF
:1040A00010B5044690F8593063B1012B11D0022BA2
:1040B0000ED04FF0500383F31188BFF36F8FBFF31F
:1040C0004F8FFEE7006B00F0B5FF204600F0B2FF17
:1040D00010BD00F0AFFFFBE70F4B1B68D3B110B56D
:1040E00001F050F80D4BDB68DC68201DFFF77EFB0C
:1040F0000B4A1368013B1360074A1368013B1360C6
:1041000001F062F82046FFF7CBFF034B1B68002B42
:10411000E6D110BD704700BFAC030020B003002003
:104120009403002008B5FFF7D7FF074B1B68012B4E
:10413000F9D94FF0E0234FF08052C3F8042DBFF3BC
:104140004F8FBFF36F8FEEE70804002070B5044671
:104150000D46174B1E68174B18680430FFF746FBD7
:10416000B4F1FF3F0DD03444124B1B685C60A64293
:1041700010D9114B18680F4B19680431FFF71DFB5C
:1041800070BD002DEFD00B4B196804310B48FFF7C1
:1041900009FBF5E70A4B1868064B19680431FFF76D
:1041A0000CFB084B1B68A342EAD9064B1C60E7E7EF
:1041B0009003002068080020D80300209803002006
:1041C000DC0300207403002030B587B00B9C7CB169
:1041D0000C9DB5B15C250495049D5C2D1AD04FF063
:1041E000500383F31188BFF36F8FBFF34F8FFEE748
:1041F0004FF0500383F31188BFF36F8FBFF34F8FDE
:10420000FEE74FF0500383F31188BFF36F8FBFF3C6
:104210004F8FFEE7049D0C9D2C63022485F85940C6
:1042200000240394029505AC01940A9C0094FFF7C6
:104230005BFE0C98FFF7DEFE059807B030BD2DE958
:10424000F04385B00746884614461E46900000F0AD
:104250006FFE08B381465C2000F06AFE0546A8B1F7
:10426000C0F83090002380F85930039302900D9BE2
:1042700001930C9B00933346224641463846FFF794
:1042800033FE2846FFF7B6FE012007E0484600F05F
:10429000D1FE4FF0FF3001E04FF0FF3005B0BDE838
:1042A000F083000010B588B000240594069407AA96
:1042B00006A905A800F0BEFD059B0293069B01938D
:1042C00000942346079A17491748FFF77DFF174BBD
:1042D0001860C0B100F04EFB012815D14FF050031B
:1042E00083F31188BFF36F8FBFF34F8F104B4FF0E5
:1042F000FF321A600F4B01221A600F4B00221A6026
:1043000000F0DAFF03E00020B0F1FF3F01D008B079
:1043100010BD4FF0500383F31188BFF36F8FBFF3CD
:104320004F8FFEE728550208254102087003002040
:10433000740300208803002090030020024A1368C1
:1043400001331360704700BF6C030020014B1868F5
:10435000704700BF90030020F8B53A4B1B68002B54
:1043600069D1394B1D6801351D60C5B9374B1B68D4
:104370001B6843B14FF0500383F31188BFF36F8F75
:10438000BFF34F8FFEE7314A1168314B1868106058
:104390001960304A136801331360FFF78FFD2E4B0D
:1043A0001B68AB423DD900272C4B1B68DB6A03EB33
:1043B00083039A002A4B9B58012B00D90127294BD4
:1043C0001B68002B3CD001273AE001271F4B1B68DC
:1043D0001B6843B31D4B1B68DB68DC6863689D4248
:1043E00026D3261D3046FFF701FAA36A1BB104F15C
:1043F0001800FFF7FBF9E36A1B4A1268934201D9E0
:10440000194A136003EB83039A00314614481044A1
:10441000FFF7C8F9E26A114B1B68DB6A9A42D4D2F3
:10442000D4E70027D2E70C4B4FF0FF321A60BBE70E
:10443000094A1360B8E70D4A136801331360002777
:104440003846F8BD6C03002090030020DC030020F8
:10445000D80300207C03002074030020680800209B
:1044600008040020800300208C0300208403002027
:1044700038B5354B1B6843B94FF0500383F31188AF
:10448000BFF36F8FBFF34F8FFEE700F07BFE2E4B25
:104490001A68013A1A601B68002B4FD12B4B1B681E
:1044A0000BB900244BE00024294B1B681BB3284B9D
:1044B000DB68DC6804F11800FFF798F9251D284631
:1044C000FFF794F9E06A234B1B68984201D9214B0E
:1044D000186000EB800029461F4B03EB8000FFF7BC
:1044E00061F9E26A1D4B1B68DB6A9A42DCD31C4B04
:1044F00001221A60D8E70CB1FFF7E0FC194B1C68E9
:1045000084B9174B1C68D4B14FF0E0234FF08052B0
:10451000C3F8042DBFF34F8FBFF36F8F01240EE05C
:10452000013C07D0FFF718FF0028F9D00C4B0122FF
:104530001A60F5E70B4B00221A60E2E7002400F056
:1045400043FE204638BD00BF6C03002094030020CA
:10455000C40300208C030020080400206808002009
:10456000800300208403002010B5A8B10446104B3E
:104570001B6843B14FF0500383F31188BFF36F8F73
:10458000BFF34F8FFEE7FFF7D9FE00212046FFF76C
:10459000DDFDFFF76DFF48B94FF0E0234FF080528B
:1045A000C3F8042DBFF34F8FBFF36F8F10BD00BF53
:1045B0006C030020204B1B681BB1204B01221A60AA
:1045C00070471E4B00221A601D4B1B6803EB8301D2
:1045D0008A001C498A585AB90BB1013BF6E74FF0E3
:1045E000500383F31188BFF36F8FBFF34F8FFEE744
:1045F000084603EB83018A00024451684968516010
:1046000003EB830C4FEA8C020832024491420BD038
:1046100003EB830291000B4A0A445268D1680A4AAC
:104620001160074A13607047486862469100054A66
:104630000A445060ECE700BF6C03002080030020B8
:104640008C030020080400206808002058B110B531
:104650000C46094A11681831FFF7AFF801212046CE
:10466000FFF774FD10BD4FF0500383F31188BFF3C3
:104670006F8FBFF34F8FFEE76808002038B570B129
:104680000D4614460A4A11681831FFF78BF80CB131
:104690004FF0FF3521462846FFF758FD38BD4FF053
:1046A000500383F31188BFF36F8FBFF34F8FFEE783
:1046B0006808002038B5C368DC6824B304F1180525
:1046C0002846FFF793F8184B1B682BBB251D28467F
:1046D000FFF78CF8E06A154B1B68984201D9134B21
:1046E000186000EB80002946114B03EB8000FFF7B8
:1046F00059F8E26A0F4B1B68DB6A9A4211D9012014
:104700000D4B186038BD4FF0500383F31188BFF391
:104710006F8FBFF34F8FFEE729460848FFF742F837
:10472000E7E70020EEE700BF6C0300208C030020C9
:10473000080400206808002080030020C403002033
:10474000034B1B680360034B1B684360704700BF4B
:104750007C03002090030020E0B170B50C460546B4
:1047600009B300F00FFD1C4B19686B68C81A22686A
:10477000B2F1FF3F28D0DFF864C0DCF800C02E683B
:10478000664501D08B4224D9824215D8002323608C
:1047900001241AE04FF0500383F31188BFF36F8FA9
:1047A000BFF34F8FFEE74FF0500383F31188BFF341
:1047B0006F8FBFF34F8FFEE75B1A134423602846C9
:1047C000FFF7BEFF002400E0002400F0FDFC2046BF
:1047D00070BD0124F9E700BF900300207C03002096
:1047E000014B01221A60704780030020054B1B68B3
:1047F00033B1054B1B680BB1002070470220704796
:1048000001207047880300206C03002000283BD063
:1048100038B504461E4B1B68834208D04FF0500346
:1048200083F31188BFF36F8FBFF34F8FFEE7036DE4
:1048300043B94FF0500383F31188BFF36F8FBFF379
:104840004F8FFEE7013B0365C16AC26C91421DD0E8
:104850000BB1002038BD051D2846FEF7C7FFE06CF0
:10486000E062C0F13803A3610A4B1B68984201D98A
:10487000084B186000EB80002946074B03EB8000D3
:10488000FEF790FF0120E5E7002070470020E1E7F8
:10489000680800208C03002008040020064B1A68DA
:1048A00013682BB90123036023B9D36818687047D4
:1048B0000023F8E7002070476C09002008B541602C
:1048C000006191420CD8D21A83699A4201D3012027
:1048D00008BD011D094B1868FEF76FFF0020F7E7C0
:1048E0009A4201D2994206D2011D054B1868FEF783
:1048F00064FF0020ECE70120EAE700BF6809002020
:104900006C09002030B583B000F03CFC114B1B68F3
:104910001BB100F059FC03B030BD0F4D2846FEF727
:1049200033FF0E4C2046FEF72FFF0D4B1D600D4B45
:104930001C60002300930C4B0C4A10210A20FFF747
:104940005BF8044B18600028E3D00949FFF778FAB8
:10495000DFE700BF640900208409002070090020FF
:104960006C090020680900206C080020BC080020A9
:104970003055020810B588B0FFF7C4FF124B1B6812
:10498000CBB100240594069407AA06A905A800F057
:104990005DFA059B0293069B019302230093234635
:1049A000079A0A490A48FFF70FFC0A4B186010B132
:1049B000012008B010BD4FF0500383F31188BFF3FE
:1049C0006F8FBFF34F8FFEE7640900203855020850
:1049D000D94C020860090020B8B19C46034618482B
:1049E000006858B300B585B0009101920293052983
:1049F0001CDCFFF7FBFE022810D000231A46694694
:104A00000F480068FFF742F815E04FF0500383F3BA
:104A10001188BFF36F8FBFF34F8FFEE70023069A15
:104A2000694607480068FFF731F804E00023624652
:104A30006946FFF7EFF805B05DF804FB002070470A
:104A40006409002070B582B01B4B1B681A6862B302
:104A5000DB681E68DC68251D2846FEF7C7FE236A52
:104A60002046984794F8283013F0040FECD0A3693F
:104A700033449E4207D26360246129460E4B186876
:104A8000FEF79BFEE0E7002100910B4632462046F0
:104A9000FFF7A2FF0028D7D14FF0500383F311880E
:104AA000BFF36F8FBFF34F8FFEE7044A10680249D0
:104AB0000860136002B070BD6C0900206809002016
:104AC00038B50546FFF742FC0446074B1B68834296
:104AD00005D800232B60044B1C60204638BDFFF72F
:104AE000B1FF01232B60F6E75C09002070B582B0AE
:104AF00006460D4617490968C968CC68201DFEF7AF
:104B000075FE94F828C01CF0040F08D12CF0010C9D
:104B100084F828C0236A2046984702B070BDA16976
:104B200033462A4631442046FFF7C8FE0028F1D01C
:104B3000002100910B4632462046FFF74DFF00282A
:104B4000E8D14FF0500383F31188BFF36F8FBFF3A9
:104B50004F8FFEE76C09002070B582B006460C4608
:104B6000FFF7ECFB01A8FFF7ABFF019B33BB05464A
:104B7000E4B9B04213D22246711B124B1868FFF7FA
:104B800073F9FFF775FCD8B94FF0E0234FF080526E
:104B9000C3F8042DBFF34F8FBFF36F8F10E0FFF703
:104BA00067FC29463046FFF7A1FF09E0064A126874
:104BB00012680AB90124DEE71C46DCE7FFF758FC5F
:104BC00002B070BD640900206809002010B588B0EB
:104BD00002E0049B002B0FDA002204A93D4B186869
:104BE000FFF77FF8002872D0049B002BF1DA0799B9
:104BF0000698059B9847ECE7069C636913B1201D56
:104C0000FEF7F4FD03A8FFF75BFF0246049B092BA8
:104C1000E2D8DFE803F00505052F364E05052F36EF
:104C200094F8283043F0010384F82830059BA169EB
:104C300019442046FFF742FE0028CDD0236A2046C3
:104C4000984794F8283013F0040FC5D0A2690021CA
:104C500000910B46059802442046FFF7BDFE002850
:104C6000BAD14FF0500383F31188BFF36F8FBFF3B6
:104C70004F8FFEE794F8283023F0010384F82830A2
:104C8000AAE794F8283043F0010384F82830059906
:104C9000A16129B1034601442046FFF70FFE9BE7BF
:104CA0004FF0500383F31188BFF36F8FBFF34F8F23
:104CB000FEE794F8283013F0020F04D023F001032C
:104CC00084F8283088E7204600F0B4F984E708B07B
:104CD00010BD00BF6409002000B583B001A8FFF734
:104CE000DDFD0199FFF738FFFFF770FFF6E708B524
:104CF0004FF0E0231B69FFF779FD012800D108BDC3
:104D000000F0B0FAFBE70000EFF305832BB9064B88
:104D1000186828B901221A6070476FF005007047C3
:104D20004FF0FF30704700BF50100020EFF30583B5
:104D300073B90A4B1B68012B0DD110B50024084B29
:104D4000DC77064B02221A60FFF7ACFA204610BD52
:104D50006FF0050070474FF0FF3070475010002093
:104D600000ED00E0F0B587B000240594EFF3058472
:104D700004BBF8B1002A34D0156893692BB11E46E4
:104D8000013B372B02D9002015E01826536813F099
:104D9000010F3FD1546984B14FEA940C93682BB151
:104DA000D7685B2F02D9176907B184B943B14FF0B7
:104DB000FF330BB3059807B0F0BD4FF0800CEDE763
:104DC000D368A3B91369ABB14FF0FF33F1E7029396
:104DD000019700960B4662462946FFF7F5F90590C4
:104DE000E8E71546002318264FF0800CE1E74FF066
:104DF000FF33DEE70023DCE705AB019300960B46AB
:104E00001FFA8CF22946FFF71AFA0128D2D00023A4
:104E10000593CFE70020CEE708B5EFF3058333B95C
:104E200008B9002008BDFFF79FFB0020FAE76FF0EC
:104E30000500F7E7034B0360034B0B60802313600F
:104E4000704700BFF40F0020F40D0020034B0360F7
:104E5000034B0B604FF4807313607047980D002074
:104E600098090020134A12F0070F1FD0D11D21F01E
:104E70000701C1F53B63083313440A460E4802603C
:104E8000002141601344083B23F007030B480360F3
:104E900059601960991A51601360094B1960094BE8
:104EA0001960094B4FF000421A60704740F6B83362
:104EB000E4E700BF741000206C1000206810002090
:104EC000601000206410002054100020164B1A4679
:104ED0001B688342FBD3516802EB010C844509D067
:104EE000416800EB010C634509D00360904219D082
:104EF000106070474068014451601046F0E710B4FC
:104F00000A4C2468A3420BD05B68194441601368C3
:104F10001B680360904200D010605DF8044B70473E
:104F20000460F7E7704700BF6C1000206810002095
:104F300038B50446FFF702FA384B1B68B3B1384B5B
:104F40001B681C4250D1002C50D004F1080214F010
:104F5000070F02D022F007020832002A55D0314B49
:104F60001B68934253D330490C6804E0FFF77AFF83
:104F7000E5E721461C466368934202D22368002B72
:104F8000F7D1264B1B68A34243D00D680835236830
:104F90000B6063689B1A102B10D9A01810F0070F34
:104FA00008D04FF0500383F31188BFF36F8FBFF326
:104FB0004F8FFEE743606260FFF788FF6268194920
:104FC0000B689B1A0B60194909688B4201D217497B
:104FD0000B60134B1B681343636000232360144A68
:104FE00013680133136002E0002500E00025FFF79D
:104FF0003FFA15F0070F0ED04FF0500383F31188DE
:10500000BFF36F8FBFF34F8FFEE70025EFE700255B
:10501000EDE70025EBE7284638BD00BF681000200B
:1050200054100020641000206C100020601000203C
:105030005C100020002834D038B50446A0F10805E3
:1050400050F8043C174A1268134208D14FF050033D
:1050500083F31188BFF36F8FBFF34F8FFEE750F8D4
:10506000081C41B14FF0500383F31188BFF36F8FD9
:10507000BFF34F8FFEE723EA020340F8043CFFF73B
:105080005DF954F8041C084A13680B441360284661
:10509000FFF71CFF054A136801331360FFF7E8F9B7
:1050A00038BD7047541000206410002058100020B4
:1050B00082B0002301930D4B1B68B3F1FF3F08D072
:1050C0004FF0500383F31188BFF36F8FBFF34F8FFF
:1050D000FEE74FF0500383F31188BFF36F8FBFF3E8
:1050E0004F8F019B002BFCD002B070470C000020BA
:1050F00008480068006880F308884FF0000080F3DB
:10510000148862B661B6BFF34F8FBFF36F8F00DFB5
:1051100000BF000008ED00E0DFF80C00016841F47A
:10512000700101607047000088ED00E04FF080736F
:1051300040F8043C21F0010140F8081C054B40F800
:105140000C3C40F8202C6FF0020340F8243C44381B
:10515000704700BFB15002080000000000000000CE
:10516000074B19680868B0E8F04F80F30988BFF36F
:105170006F8F4FF0000080F311887047AFF300800D
:10518000680800204FF0500383F31188BFF36F8F3E
:10519000BFF34F8F0B4A136801331360012B00D00C
:1051A00070474FF0E023D3F8043D13F0FF0FF7D022
:1051B0004FF0500383F31188BFF36F8FBFF34F8F0E
:1051C000FEE700BF0C000020094B1B6843B94FF0FD
:1051D000500383F31188BFF36F8FBFF34F8FFEE748
:1051E000013B034A13600BB983F31188704700BF7A
:1051F0000C00002000000000000000000000000083
:10520000EFF30980BFF36F8F154B1A681EF0100F74
:1052100008BF20ED108A20E9F04F10602DE9090049
:105220004FF0500080F31188BFF34F8FBFF36F8FA3
:10523000FFF7C0F94FF0000080F3118809BC19682E
:105240000868B0E8F04F1EF0100F08BFB0EC108AED
:1052500080F30988BFF36F8F704700BFAFF3008002
:105260006808002008B54FF0500383F31188BFF39E
:105270006F8FBFF34F8FFFF76FF828B14FF0E02328
:105280004FF08052C3F8042D002383F3118808BD2A
:105290004FF0E022002313619361054B1B68054921
:1052A000A1FB03139B09013B536107231361704763
:1052B00008000020D34D62104FF0E023D3F8002DFA
:1052C0003D4B9A421CD04FF0E023D3F8002D3B4BCE
:1052D0009A421ED030B583B0394B1A78D2B20192BF
:1052E000FF221A701B78DBB28DF803309DF8033073
:1052F00003F05003334A1370334B07221A601BE04C
:105300004FF0500383F31188BFF36F8FBFF34F8FBC
:10531000FEE74FF0500383F31188BFF36F8FBFF3A5
:105320004F8FFEE7284A1368013B13609DF8033056
:105330005B00DBB28DF803309DF8033013F0800F73
:10534000F0D1214B1B68032B08D04FF0500383F39F
:105350001188BFF36F8FBFF34F8FFEE71B021A4A0E
:10536000136003F4E0631360019BDBB2144A137013
:105370004FF0E024D4F8203D43F47003C4F8203DFE
:10538000D4F8203D43F07043C4F8203DFFF780FF80
:1053900000250E4B1D60FFF7BFFED4F8343F43F0ED
:1053A0004043C4F8343FFFF7A3FEFFF703F9FFF7CC
:1053B0007FFE284603B030BD71C20F4170C20F415D
:1053C00000E400E0301C00202C1C00200C00002019
:1053D000EFF305830F2B0ED9114A9A5C114B1B7802
:1053E0009A4208D24FF0500383F31188BFF36F8FB6
:1053F000BFF34F8FFEE74FF0E023D3F80C3D03F4EB
:10540000E063094A1268934208D94FF0500383F3CE
:105410001188BFF36F8FBFF34F8FFEE7704700BF58
:10542000F0E300E0301C00202C1C0020DFF834D01A
:10543000FEF79CF90C480D490D4A002302E0D458B0
:10544000C4500433C4188C42F9D30A4A0A4C0023CE
:1054500001E013600432A242FBD300F019F8FCF71C
:1054600085FFFEE700C000200000002010000020A3
:10547000E055020810000020341C0020FEE7024422
:105480000346934200D1704703F8011BF9E700007F
:1054900070B50D4B0D4D5B1B9C100026A64209D12B
:1054A00000F028F80A4D0B4B5B1B9C100026A6420F
:1054B00005D170BD55F8043B98470136EEE755F825
:1054C000043B98470136F2E7D0550208D055020850
:1054D000D0550208D45502080A44914200F1FF3326
:1054E00000D1704710B511F8014B03F8014F9142FC
:1054F000F9D110BDF8B500BFF8BC08BC9E46704796
:10550000F8B500BFF8BC08BC9E467047000000001C
:105510004C45445F426C696E6B00000064656661D7
:10552000756C745461736B0049444C450000000075
:10553000546D725100000000546D72205376630068
:1055400010550208000000002C0000205C00000044
:105550008800002000020000180000000000000089
:10556000000000001C5502080000000000000000C0
:105570000000000000000000000200001800000011
:105580000000000000000000A0860100400D0300A4
:10559000801A060000350C0040420F0080841E0077
:1055A00000093D0000127A000024F40000366E016C
:1055B0000048E801006CDC02000000000102030466
:1055C00000000000000000000102030406070809B3
:0855D000B521020800000000F3
:0855D80091210208000000000F
:1055E000010000001000000000093D00AAAAAAAABC
:040000050802542D6C
:00000001FF
